:100000000C9463000C94F51D0C94CE1D0C948B0085
:100010000C948B000C948B000C948B000C944B2054
:100020000C948B000C948B000C948B000C948F1F01
:100030000C948B000C948B000C948B000C948B0014
:100040000C94841D0C948B000C94421E0C941C1E6A
:100050000C948B000C948B000C948B000C948B00F4
:100060000C94741E0C948B000000000024002700E8
:100070002A0000000000250028002B0000000008D6
:10008000000201000003040700000000000000005F
:1000900000000000230026002900040404040404D6
:1000A0000404020202020202030303030303010227
:1000B00004081020408001020408102001020408F6
:1000C000102050215C3211241FBECFEFD8E0DEBFDC
:1000D000CDBF12E0A0E0B1E0EAEDF4E702C0059088
:1000E0000D92AC30B107D9F725E0ACE0B2E001C029
:1000F0001D92A738B207E1F710E0C2E6D0E004C0D5
:100100002197FE010E947C35C136D107C9F70E94B4
:1001100052220C94603A0C940000982F20914F03C7
:1001200081E0213208F043C080912B038111FCCF84
:1001300080914E0332E030932B0390932A039FEF7C
:10014000909329031092280320932703AEE2B3E093
:10015000E7E0F3E090E0291331C01092060390919C
:100160000603880F892B8093060380910503813055
:1001700049F510920503809106038093BB0080919E
:10018000BC0083FDF8CF85EC8093BC0080912B03ED
:100190008230E1F3809129038F3FB1F080912903F0
:1001A0008032A1F080912903803391F084E0109295
:1001B0002D0310924F0310922C0308953D9131931B
:1001C0009F5FC9CF85EEE0CF80E0F1CF82E0EFCF37
:1001D00083E0EDCFCF92DF92EF92FF92DC01A0326D
:1001E00082E0B807D4F5A53BB10514F0A4EBB0E06C
:1001F00040912B0528E830E0241B310947FD339559
:10020000220F331F220F331F6901330FEE08FF083F
:1002100040912C0528E532E0241B310947FD339538
:10022000220F331F220F331F032E000C440B550BDC
:100230002C193D094E095F09B7FF02C0B0E0A0E0EC
:100240000E94AE3324EB30E040E050E00E94843363
:10025000C20ED31EE41EF51ED601E0912A05EC3035
:1002600080F520912B0588E890E0821B910927FDFD
:100270009395880F991F880F991FA817B90784F0C5
:1002800020912C0588E592E0821B910927FD93952A
:10029000880F991F880F991FA817B9070CF4CD0173
:1002A0000297880F991F4FB7F8942E2F30E0F9016D
:1002B000EE0FFF1FE20FF31FEB5FFA4F9283818374
:1002C0004FBFFF90EF90DF90CF90089520E0DC01CA
:1002D00060FF03C001C02D932D936250E0F7704082
:1002E000D0F70895833081F028F4813099F082307E
:1002F000A9F008958730A9F08830C9F08430B1F4AE
:10030000809180008F7D03C0809180008F778093E3
:100310008000089584B58F7784BD089584B58F7D5E
:10032000FBCF8091B0008F778093B00008958091CB
:10033000B0008F7DF9CF1F93CF93DF93282F30E04C
:10034000F901E458FF4F8491F901E255FF4FD49130
:10035000F901E656FF4FC491CC23A9F0162F811165
:100360000E947201EC2FF0E0EE0FFF1FEE58FF4FDE
:10037000A591B4918FB7F894EC91111108C0D09564
:10038000DE23DC938FBFDF91CF911F910895DE2B89
:10039000F8CFCF93DF9390E0FC01E255FF4F24911B
:1003A00086569F4FFC0184918823C9F090E0880F06
:1003B000991FFC01E859FF4FA591B491FC01EE583B
:1003C000FF4FC591D49161110DC09FB7F8948C91E6
:1003D000209582238C938881282328839FBFDF91D7
:1003E000CF910895623051F49FB7F8943C91822FD9
:1003F000809583238C93E8812E2BEFCF8FB7F894D1
:10040000EC912E2B2C938FBFEACF0F931F93CF939A
:1004100090912A059C3008F05BC08B01C82F61E0E9
:100420000E94C90180912A05282F30E0F901EE0FC2
:10043000FF1FE20FF31FEB5FFA4FCF739081907CA9
:10044000C92BC08320E232E0201B310B3595279564
:100450003595279520932B0510922C052CE0622FC3
:100460000E944835829FB001112430E020E0AB01AA
:10047000420F531FFA01EE0FFF1FE40FF51FEB5F52
:10048000FA4F908196FD16C02F5F3F4F2C303105FB
:1004900071F781110FC01092800082E0809381007B
:1004A0001092850010928400B19A80916F00826052
:1004B00080936F00E0912A058E2F90E0FC01EE0FF3
:1004C000FF1FE80FF91FEB5FFA4F80818064808384
:1004D00080912A05CF911F910F91089560E272E0FB
:1004E0000C9405021F93CF93DF93182FEB0161E06B
:1004F0000E94C901209739F460E0812FDF91CF91EC
:100500001F910C949B01CF3FD10511F461E0F5CF11
:10051000E12FF0E0E458FF4FE491E33031F140F493
:10052000E130B1F0E230E1F0C038D1057CF7E4CF42
:10053000E73029F1E83059F1E430B1F780918000DB
:10054000806280938000D0938B00C0938A0004C0A7
:1005500084B5806884BDC7BDDF91CF911F91089598
:1005600084B5806284BDC8BDF7CF8091800080686B
:1005700080938000D0938900C0938800EDCF809154
:10058000B00080688093B000C093B300E5CF809145
:10059000B00080628093B000C093B400DDCF8E5075
:1005A000806480937C0080917A00806480937A00DC
:1005B00080917A0086FDFCCF80917800909179003F
:1005C00008953FB7F8948091DE029091DF02A091E8
:1005D000E002B091E10226B5A89B05C02F3F19F0BB
:1005E0000196A11DB11D3FBFBA2FA92F982F8827B3
:1005F000BC01CD01620F711D811D911D42E0660F8E
:10060000771F881F991F4A95D1F708958F929F925F
:10061000AF92BF92CF92DF92EF92FF924B015C01BB
:100620000E94E1026B017C010E94E1026C197D09CC
:100630008E099F09683E734081059105A8F321E06A
:10064000821A9108A108B10888EEC80E83E0D81E6E
:10065000E11CF11C81149104A104B10429F7FF905D
:10066000EF90DF90CF90BF90AF909F908F900895C4
:100670002FB7F8946091DA027091DB028091DC026E
:100680009091DD022FBF0895CF92DF92EF92FF92FB
:100690000F931F930E943803009158031091590340
:1006A00020915A0330915B036B017C01C01AD10A7F
:1006B000E20AF30AA701960121153105410551050A
:1006C00021F421E030E040E050E0E0915603F09169
:1006D000570388EE93E0E89FB001E99F700DF89F03
:1006E000700D1124072E000C880B990B0E94ED331E
:1006F0003093070420930604109257031092560378
:100700000E943803609358037093590380935A03EF
:1007100090935B031F910F91FF90EF90DF90CF902C
:100720000895CF92DF92EF92FF92CF93DF93EC0187
:10073000072E000C880B990B0E9467326B017C011D
:1007400020E030E040E45FE30E94C63220E030E089
:1007500048E452E40E948B340E94FD34C617D70748
:10076000D4F020E030E040EA5FE3C701B6010E9428
:10077000C63220E030E048E452E40E948B3420E0AE
:1007800030E040E85FE30E941F340E94FD3421E026
:100790006C177D070CF420E0822F90E0DF91CF9161
:1007A000FF90EF90DF90CF9008958F929F92AF923D
:1007B000BF92CF92DF92EF92FF920F931F93CF934E
:1007C000DF93FC0120813181E0910003F09101036E
:1007D00001E010E02E173F070CF043C0D901AA0F2B
:1007E000BB1FE091FE02F091FF02EA0FFB1FA08009
:1007F000B1808901009510950170112720FD23C05B
:100800002CE93FEFEA016B017C014901840E951E42
:10081000B401C5010E949103892BC1F48C0E9D1E69
:10082000B401C5010E949103892B49F5BE01680DF1
:10083000791DC5010E94910323E030E0892B41F42A
:100840000FEF1FEF0EC024E630E0DCCF21E030E0F8
:10085000F601808191810196821793079CF4918320
:100860008083C801DF91CF911F910F91FF90EF908E
:10087000DF90CF90BF90AF909F908F90089522E02F
:1008800030E0E6CF11821082F701808191810196DC
:10089000E6CF80E991E008950895AF92BF92CF929C
:1008A000DF92EF92FF920F931F93CF93DF936C0130
:1008B0007B018B01040F151FEB015E01AE18BF0811
:1008C000C017D10759F06991D601ED91FC910190C3
:1008D000F081E02DC6010995892B79F7C501DF91DB
:1008E000CF911F910F91FF90EF90DF90CF90BF902D
:1008F000AF900895FC0144815581608171818CE540
:1009000093E00C944D04FC01538D448D252F30E071
:10091000842F90E0821B930B541710F0CF9608950C
:1009200001970895FC01918D828D981761F0A28D39
:10093000AE0FBF2FB11D5D968C91928D9F5F9F73FF
:10094000928F90E008958FEF9FEF0895FC01918DB5
:10095000828D981731F0828DE80FF11D858D90E022
:1009600008958FEF9FEF0895FC01918D228D892FBF
:1009700090E0805C9F4F821B91098F7399270895A7
:100980008CE593E00E94B40421E0892B09F420E077
:10099000822F089580E090E0892B29F00E94C00406
:1009A00081110C9400000895FC01A48DA80FB92FAB
:1009B000B11DA35ABF4F2C91848D90E001968F7387
:1009C0009927848FA689B7892C93A089B1898C91A6
:1009D000837080648C93938D848D981306C00288F5
:1009E000F389E02D80818F7D80830895EF92FF92BF
:1009F0000F931F93CF93DF93EC0181E0888F9B8D42
:100A00008C8D98131AC0E889F989808185FF15C0FB
:100A10009FB7F894EE89FF896083E889F98980811E
:100A20008370806480839FBF81E090E0DF91CF91ED
:100A30001F910F91FF90EF900895F62E0B8D10E00F
:100A40000F5F1F4F0F731127E02E8C8D8E110CC07E
:100A50000FB607FCFACFE889F989808185FFF5CFC9
:100A6000CE010E94D404F1CFEB8DEC0FFD2FF11DD0
:100A7000E35AFF4FF0829FB7F8940B8FEA89FB8906
:100A800080818062CFCFCF93DF93EC01888D882364
:100A9000B9F0AA89BB89E889F9898C9185FD03C0E1
:100AA000808186FD0DC00FB607FCF7CF8C9185FFC6
:100AB000F2CF808185FFEDCFCE010E94D404E9CF33
:100AC000DF91CF91089585ED8093BC008091BC00AB
:100AD00084FDFCCF10922B03089520916102260F14
:100AE0003327331F21323105ECF420912B03FC0115
:100AF00090E080E0243069F082E00895A0916102E6
:100B00002191AC014F5B5D4FA40FB52FB11D2C930C
:100B10000196861798F380916102680F60936102D5
:100B200080E0089581E008950895E0918502809124
:100B30008402E81730F4F0E0EF5DFD4F808190E033
:100B400008958FEF9FEF0895909185028091840220
:100B50002FEF3FEF981748F4E92FF0E0EF5DFD4FDE
:100B6000208130E09F5F90938502C90108958091B4
:100B7000840290918502891B990B0895CF92DF9290
:100B8000EF92FF920F931F93CF93DF937C01CB01E2
:100B90008A0120912C03222389F0EB016B01C40E02
:100BA000D51ECC15DD0569F06991D701ED91FC9159
:100BB0000190F081E02DC7010995F3CF642F0E94C9
:100BC0006D05C801DF91CF911F910F91FF90EF90BC
:100BD000DF90CF900895CF93DF931F92CDB7DEB70C
:100BE000698320912C032223F9F020914F032032B6
:100BF00058F021E030E0FC013383228390E080E074
:100C00000F90DF91CF91089580912D03E82FF0E0B0
:100C1000E25DFC4F998190838F5F80932D038093D9
:100C20004F0381E090E0ECCF61E0CE0101960E949D
:100C30006D05F7CFCF93DF93EA0191E090932C03FA
:100C400080934E0310922D0310924F0389EF93E08F
:100C50000E94EB05688189EF93E00E94EB0581E03B
:100C60000E948D0091E0811190E0892FDF91CF915A
:100C7000089590E080E008950F931F93CF93DF9342
:100C800020911F022F5F322F377030931F0220FFF9
:100C90002BC020E831FD2064347009F02062205F11
:100CA000FC01EC01239600E011E06485662329F045
:100CB00070E0C8010E9468356F5F6187322F369FF0
:100CC000030E30E0311D1124311110C0168266234D
:100CD00011F0615061873196EC17FD0731F7DF9114
:100CE000CF911F910F91089520E0D4CF31503683DA
:100CF000EECF4F925F927F928F929F92AF92BF9270
:100D0000CF92DF92EF92FF920F931F93CF93DF93D7
:100D10002C01EB010E94E102F20127853089621B60
:100D2000730B6A307105B0F3F8948A819B811816B1
:100D300019060CF0CDC1E881F9816BB1862E68945B
:100D400084F83BB13F7E3BB9DA848F812D2D281B7F
:100D5000822F2F834F85042E000C550BAA81BB8157
:100D60007D85FC84EE847F5FF394E3949E81988478
:100D7000B984AB841181C12C6C2D0C2D2C2D2181BB
:100D8000112788942111280F08F42FEF819588945A
:100D900070FD120F1795889471FD120F17958894A6
:100DA00072FD120F1795889473FD120F1795889492
:100DB00074FD120F1795889475FD120F179588947E
:100DC00076FD120F1795889477FD120F179588946A
:100DD000622F7111612F8D0D162F002C8BB800C062
:100DE00017FF3BB920816627889400C000C0002C03
:100DF0003BB92111290F00C0002C8BB800C016FF91
:100E00003BB908F42FEF9195889400C000C0002CE6
:100E10003BB9F0FC620F00C0002C8BB800C015FF7E
:100E20003BB967958894F1FC620F00C000C0002CAC
:100E30003BB96795889400C0002C8BB800C014FFA4
:100E40003BB9F2FC620F6795889400C000C0002C8B
:100E50003BB9F3FC620F00C0002C8BB800C013FF3D
:100E60003BB967958894F4FC620F00C000C0002C69
:100E70003BB96795889400C0002C8BB800C012FF66
:100E80003BB9F5FC620F6795889400C000C0002C48
:100E90003BB9F6FC620F00C0002C8BB800C011FFFC
:100EA0003BB967958894F7FC620F00C000C0002C26
:100EB0003BB96795889400C0002C8BB800C010FF28
:100EC0003BB9122FF110162F9B0D00C000C0002C53
:100ED0003BB900C000C0002C8BB800C017FF3BB965
:100EE00022816627889400C000C0002C3BB92111E4
:100EF000290D00C0002C8BB800C016FF3BB908F4C8
:100F00002FEFE40FF51F00C000C0002C3BB9E0FC40
:100F1000620F00C0002C8BB800C015FF3BB967956D
:100F20008894E1FC620F00C000C0002C3BB96795BB
:100F3000889400C0002C8BB800C014FF3BB9E2FCC1
:100F4000620F6795889400C000C0002C3BB9E3FC99
:100F5000620F00C0002C8BB800C013FF3BB967952F
:100F60008894E4FC620F00C000C0002C3BB9679578
:100F7000889400C0002C8BB800C012FF3BB9E5FC80
:100F8000620F6795889400C000C0002C3BB9E6FC56
:100F9000620F00C0002C8BB800C011FF3BB96795F1
:100FA0008894E7FC620F00C000C0002C3BB9679535
:100FB000889400C0002C8BB800C010FF3BB9122FE2
:100FC000E110162F919400C000C0002C3BB99A0C80
:100FD00000C000C08BB800C017FF3BB92181662755
:100FE000889400C000C0002C3BB92111280F00C01C
:100FF000002C8BB800C016FF3BB908F42FEF819589
:10100000889400C000C0002C3BB970FD620F00C086
:10101000002C8BB800C015FF3BB96795889471FD13
:10102000620F00C000C0002C3BB96795889400C0D7
:10103000002C8BB800C014FF3BB972FD620F67959E
:10104000889400C000C0002C3BB973FD620F00C043
:10105000002C8BB800C013FF3BB96795889474FDD2
:10106000620F00C000C0002C3BB96795889400C097
:10107000002C8BB800C012FF3BB975FD620F67955D
:10108000889400C000C0002C3BB976FD620F00C000
:10109000002C8BB800C011FF3BB96795889477FD91
:1010A000620F00C000C0002C3BB96795889400C057
:1010B000002C8BB800C010FF3BB9122F7111162FF6
:1010C0008D0D00C000C0002C3BB9119709F086CEF1
:1010D0004A815B8120EE31E0DA010E948235DC0139
:1010E000CB01F4E0B695A79597958795FA95D1F73A
:1010F00030E020E0B901EAE94E9F040E611D5E9FD9
:10110000600D711D1124650F711D860F971FA11DA4
:10111000B11D893E43E09407A105B10508F434C030
:10112000885E9340A109B10942E0B695A7959795CD
:1011300087954A95D1F747E0849F080E211D949F1B
:10114000200D311D1124290F311D60911E0270E008
:10115000860F971F820F931F4091DA025091DB0296
:101160006091DC027091DD02292F3327420F531F5B
:10117000611D711D4093DA025093DB026093DC0223
:101180007093DD0280931E0278940E94E102F201C6
:10119000708B6787DF91CF911F910F91FF90EF9038
:1011A000DF90CF90BF90AF909F908F907F905F9097
:1011B0004F900895549A08956F927F928F92CF9294
:1011C000DF92EF92FF920F931F93CF93DF93CDB7F0
:1011D000DEB762970FB6F894DEBF0FBECDBF6C01CD
:1011E0007A013801822EDC011C962C91CA0157FF2E
:1011F00004C088279927841B950B7A8369839C8375
:101200008B839E838D836D867E868F86213049F504
:10121000CE0101960E943C0683E0888B1A8A198AC7
:10122000F7FE02C08DEF888BD601ED91FC9104840E
:10123000F585E02DBE016F5F7F4FC601099562966F
:101240000FB6F894DEBF0FBECDBFDF91CF911F91D7
:101250000F91FF90EF90DF90CF908F907F906F90E5
:1012600008951C861B861A86198618861F82D4CF7D
:10127000EF92FF920F931F93CF93DF93CDB7DEB71B
:1012800062970FB6F894DEBF0FBECDBF7C01DC01C4
:101290001C968C917A8369835C834B835E834D8338
:1012A0000D871E872F878130F9F4CE0101960E94A9
:1012B0003C06188A1A8A198AD701ED91FC91048498
:1012C000F585E02DBE016F5F7F4FC70109956296DE
:1012D0000FB6F894DEBF0FBECDBFDF91CF911F9147
:1012E0000F91FF90EF9008951C861B861A86198631
:1012F00018861F82DECF0F931F93CF930E9438036F
:1013000000911A0210911B0220911C0230911D02C3
:10131000601B710B820B930B653F7140810591053A
:10132000B8F0C0911902CF5FC09319020E94380330
:1013300060931A0270931B0280931C0290931D020B
:10134000C53010F010921902809119028093A50205
:10135000CF911F910F9108958F929F92AF92BF925C
:10136000CF92DF92EF92FF92A895C12CD12C7601FB
:101370004C01B12CA12CC814D904EA04FB0460F47C
:1013800061E070E080E090E00E9406038FEFC81AF1
:10139000D80AE80AF80AEFCFFF90EF90DF90CF90DD
:1013A000BF90AF909F908F9008951F93CF93DF933E
:1013B000182FEB018D7F8130D1F46231710510F06F
:1013C000C1E1D0E0209711F4C1E0D0E08AE090E0E4
:1013D0000E946E028AE0282F2C9FC0012D9F900D45
:1013E00011240E94EA0084EF91E00E94AC0912509F
:1013F0001230D8F4CC30D10510F0CBE0D0E08BE047
:1014000090E00E946E02C330D10510F4C3E0D0E03A
:101410008AE0282F2C9FC0012D9F900D11240E943F
:10142000EA0084EF91E00E94AC09E0912A058E2F3A
:1014300090E0FC01EE0FFF1FE80FF91FEB5FFA4F82
:1014400080818F7B8083DF91CF911F910895CF930F
:10145000DF93EC018AE090E00E946E02CE010E94D0
:10146000EA0082EC91E00E94AC09E0912A058E2FFF
:1014700090E0FC01EE0FFF1FE80FF91FEB5FFA4F42
:1014800080818F7B8083DF91CF91089590E080E011
:1014900008954F925F926F927F928F929F92AF9238
:1014A000BF92CF92DF92EF92FF920F931F93CF9351
:1014B000DF9300D01F92CDB7DEB76A0119821A827E
:1014C0001B828823C9F18B01E1E0F0E0482E512C0A
:1014D000712C612CD8012D918D01222349F17F01BE
:1014E000B1E0EB1AF108D601AE0DBF1D8C9088203B
:1014F000F9F030E050E040E02F5F3F4F4F4F5F4F3B
:10150000C301B2010E9438359B01AC01912CB12C72
:10151000A12CC501B4016F5F7F4F8F4F9F4F0E9479
:101520003835A1E0B0E0AC0FBD1FAE0DBF1D8C93F0
:101530003196E430F10571F669817A818B810F90E3
:101540000F900F90DF91CF911F910F91FF90EF902F
:10155000DF90CF90BF90AF909F908F907F906F90D3
:101560005F904F900895CF92DF92EF92FF920F938A
:101570001F93CF93DF93F82E809108049091090474
:10158000A0910A04B0910B04892B8A2B8B2BD9F0E4
:101590000E94E102009152031091530320915403E1
:1015A00030915503601B710B820B930B0091080463
:1015B0001091090420910A0430910B0460177107FF
:1015C00082079307C8F20E94E1026093520370936E
:1015D00053038093540390935503E0911004F091CA
:1015E0001104309759F040910C0450910D04609112
:1015F0000E0470910F048F2D0995F82EC0915003A1
:10160000D0915103209721F1EC84809106049091B0
:1016100007048436910508F41C86E881F981C280AC
:10162000D380AE01475F5F4FBE016A5F7F4F8F2D52
:101630000E94490A8B01282F4D855E856A817B8136
:10164000CE01F6010995EC860C80DD81C02DDACF44
:1016500080915603909157039C012F5F3F4F309329
:10166000570320935603499754F0DF91CF911F9170
:101670000F91FF90EF90DF90CF900C944403DF9197
:10168000CF911F910F91FF90EF90DF90CF90089531
:101690004093020350930303609304038091050475
:1016A0000E94B30A90E080E00C94AC09AF92BF9224
:1016B000CF92DF92EF92FF920F931F93CF93DF931E
:1016C0006C01F62E8091080490910904A0910A04FF
:1016D000B0910B04892B8A2B8B2BD9F00E94E1024D
:1016E00000915203109153032091540330915503FC
:1016F000601B710B820B930B00910804109109047D
:1017000020910A0430910B04601771078207930738
:10171000C8F20E94E10260935203709353038093D6
:10172000540390935503E0911004F0911104309705
:1017300059F040910C0450910D0460910E04709189
:101740000F048F2D0995F82EC0915003D0915103AD
:10175000209719F1EC848091060490910704843657
:10176000910508F41C86E881F981A080B180AE0162
:10177000475F5F4FBE016A5F7F4F8F2D0E94490A0E
:101780004D855E858B01282FB601CE01F5010995A7
:10179000EC860C80DD81C02DDBCF809156039091CB
:1017A00057039C012F5F3F4F3093570320935603FD
:1017B000499764F0DF91CF911F910F91FF90EF90C7
:1017C000DF90CF90BF90AF900C944403DF91CF9106
:1017D0001F910F91FF90EF90DF90CF90BF90AF904F
:1017E00008950F931F93CF93DF9300D01F92CDB72F
:1017F000DEB719821A821B8260E0CE0101960E9438
:10180000560B00915003109151030115110591F0F1
:10181000F80182819381009749F025853685B901C9
:10182000660F771F620F731F0E946601F801048123
:101830001581EBCF0F900F900F90DF91CF911F91FB
:101840000F910895FC018585968508950F931F9348
:10185000CF93DF9300D01F92CDB7DEB7AB011982D3
:101860001A821B82DC01ED91FC910190F081E02D48
:1018700000E010E020E0BE016F5F7F4F09950F9000
:101880000F900F90DF91CF911F910F9108954F927C
:101890005F926F927F928F929F92AF92BF92DF92F0
:1018A000EF92FF920F931F93CF93DF938C01EB0185
:1018B00088818B32D1F18D32C9F52196EE24E394E3
:1018C000888190ED980F9A3010F08E3289F560E0A3
:1018D00070E0CB01FE012191A0ED8A2E820E39E04D
:1018E000381508F440C06A3929E97207820729E1EE
:1018F000920708F04DC0AAE0B0E09B01AC010E9445
:10190000A333912CB12CA12C240135014094509487
:10191000609470944616570668067906C8F1680DFB
:10192000791D8A1D9B1DEF01D5CF2196E12CC8CFD3
:10193000F80110821182128213821482158216829B
:1019400017821086C801DF91CF911F910F91FF90F0
:10195000EF90DF90BF90AF909F908F907F906F90AF
:101960005F904F900895211113C0F8016083718337
:10197000828393830E946532F80164837583868332
:10198000978387E0E11001C086E0F8018087DACF15
:10199000F12CEAE08E2E912CA12CB12C6115710551
:1019A000F0E88F07910540F0A50194010E94ED3306
:1019B000CA01B901F394F2CFFE01299130ED320F43
:1019C0003A3010F4F394F8CF2E32F1F4EF0121966F
:1019D000FE012196208150EDD52ED20E29E02D1545
:1019E00098F06C3C3CEC73073CE08307910580F772
:1019F000AAE0B0E09B01AC010E94A3336D0D711D04
:101A0000811D911DFA94E4CF20812F7DD0E0C0E0AC
:101A1000253409F04FC021812D32A9F53296BB241F
:101A2000B394DF01D0E0C0E02F2D0F2C000C330B5E
:101A30004AE0A42EFD01DD9040ED4D0D4A30A8F5A1
:101A4000AC9EA001AD9E500D1124CD2DDD0CDD0B03
:101A5000E097C40FD51FAE01420F531F4732510507
:101A60004CF3BB20B9F080E090E0A0E0B0E8E110DA
:101A700003C080E090E0DC01F80184839583A683B5
:101A8000B78388E083CF2B3219F03196B12CC9CFC0
:101A90003296FCCF80E090E0A0E8BFEFE110ECCF01
:101AA00080E090E0A0E8BFE7E7CFBB2019F0D19538
:101AB000C195D109208121113BCFCF0DD11DF7FC5C
:101AC000DA950E9465321C161D06E4F4F12CC0FF65
:101AD0000CC024E0F29EF0011124EB5BFE4F20814C
:101AE0003181428153810E94C632D595C795F394C6
:101AF000209769F7E1109058F80164837583868315
:101B00009783BFCFD195C195D109F12C209791F33F
:101B1000C0FF0CC024E0F29EF0011124E35DFE4FF3
:101B200020813181428153810E94C632D595C7956B
:101B3000F394ECCF80339CF08A3324F08F3524F07B
:101B40008B3724F481E0089581344CF08B35D4F345
:101B500093ED980F81E09230B0F380E008958B32DE
:101B6000B9F7F0CFFC018285811114C0A281B38145
:101B7000848195812FEF3FEFA817B90730F4CD018D
:101B80000196938382832C9130E037FD20E02187FA
:101B900081E08287818508951F93CF93DF93EC01C5
:101BA000CE010E94B20D8B303CF489305CF4882366
:101BB000E9F090E080E01CC0803221F08F3221F00B
:101BC0008D30B9F71A86ECCF1A86CE010E94B20D7D
:101BD0008A3229F08F32D1F082E090E009C01A8673
:101BE00010E0CE010E94B20D811106C081E090E0AC
:101BF000DF91CF911F9108958F3211F41111E2CF2F
:101C000011E08A3209F010E01A86EBCF1A86CE0175
:101C10000E94B20D882351F38A30C1F7C1CFCF9211
:101C2000DF92EF92FF92CF93DF93CDB7DEB7299784
:101C30000FB6F894DEBF0FBECDBF009749F0FC0190
:101C400084818F77873040F4853068F48330E0F406
:101C500060E070E0CB010BC08830D1F7C080D1804C
:101C6000E280F38020C06081718182819381299616
:101C70000FB6F894DEBF0FBECDBFDF91CF91FF90BE
:101C8000EF90DF90CF90089560817181CE01019631
:101C90000E94470C89858630F1F08830C9F6CD80E6
:101CA000DE80EF80F88420E030E0A901C701B601B2
:101CB0000E94333587FDCCCF20E030E040E85FE480
:101CC000C701B6010E946032181614F2C701B601AE
:101CD0000E940435CCCF69817A818B819C81C7CFEA
:101CE000CF92DF92EF92FF92CF93DF93CDB7DEB723
:101CF00029970FB6F894DEBF0FBECDBF009749F00D
:101D0000FC0184818F77873030F4853058F483303C
:101D100000F580E011C08830E1F7C080D180E2801A
:101D2000F38026C080819181A281B3818F3F91058C
:101D3000A105B10509F068F729960FB6F894DEBF42
:101D40000FBECDBFDF91CF91FF90EF90DF90CF908E
:101D5000089560817181CE0101960E94470C8985AA
:101D6000863001F18830A9F6CD80DE80EF80F884DE
:101D700020E030E0A901C701B6010E94333587FD9C
:101D8000C8CF20E030E04FE753E4C701B6010E941E
:101D9000603218160CF4BDCFC701B6010E9404359D
:101DA000862FCACF89819A81AB81BC81BFCF8EE05B
:101DB0000E94CF02209167053091680528173907E6
:101DC000C0F48FE00E94CF02209167053091680532
:101DD0002817390770F480E10E94CF02209167052F
:101DE000309168052817390720F41092560580E0D5
:101DF000089581E0809356050895FC0180819181CA
:101E0000892B21F460E070E0CB0108956BE07FE066
:101E100090E080E008950895FC0184819581009709
:101E200099F022813381468157812417350718F0B4
:101E3000158214820895A9014F5F5F4F5383428337
:101E4000820F931FFC0160830895DF92EF92FF924F
:101E50000F931F93CF93DF93CDB7DEB728970FB6BD
:101E6000F894DEBF0FBECDBF8C017B01DC0116965E
:101E7000ED91FC91228133818481958193838283CA
:101E8000FA83E9831C821B823E832D83821B930B82
:101E900098878F83C8010E94B20DD82EF801128650
:101EA000C8010E94B20DD8011A961C92D816A9F149
:101EB000811110C081E090E028960FB6F894DEBF43
:101EC0000FBECDBFDF91CF911F910F91FF90EF908B
:101ED000DF9008958C35D9F4C8010E94B20D882393
:101EE00049F3853719F484E090E0E6CFE7EAF1E0C2
:101EF0009081992351F0891306C08181811105C019
:101F000082E090E0D9CF3296F3CFF8011286682FA5
:101F1000CE0101960E940C0FC3CF60E0CE01019666
:101F20000E940C0F8D819E81892B79F0E981FA81C5
:101F30008B819C812F813885AC01421B530B8281A0
:101F40009381840F951F938382838D819E81D70116
:101F50008D939C93892B19F483E090E0ADCF90E0B2
:101F600080E0AACFCF93DF93DC01EB01EC81FD8110
:101F70008A819B810896E817F90730F4F0E0E0E0E9
:101F8000CF01DF91CF9108953897FD83EC8330978F
:101F9000A9F31296CD91DC911397209791F0CF0180
:101FA0008C1B9D0B23E0959587952A95E1F78D83F2
:101FB0001396FC93EE931297158214821782168261
:101FC000DFCF1196FC93EE93F3CF8F929F92AF9257
:101FD000BF92CF92DF92EF92FF920F931F93CF9316
:101FE000DF93CDB7DEB7CD54D1090FB6F894DEBF7D
:101FF0000FBECDBF8C016B010E94CC0D2E969FAF02
:102000008EAF2E97CE01845B9F4F0E94FD0E672BF3
:1020100009F08BC280FD89C2C8010E94B20D8732CF
:1020200009F4EDC11CF5823209F4E9C1C8010E942E
:10203000B20DF82EAE014F5F5F4F4A01E12C5A01FD
:102040008F2D0E949A0D882309F4F6C15FE3E516EF
:1020500009F4F2C1D8011A961C92E394F401F192AA
:102060004F01C8010E94B20DF82EEACF8B3509F45A
:1020700068C08B37D9F6D60114968C911497807866
:10208000806214968C93149711961C921E9213964C
:102090001C921E921297F8018085882309F4ACC126
:1020A000C8010E94B20D8B3709F065C0D8011A969D
:1020B0001C92C8010E94CC0D2C969FAF8EAF2C971E
:1020C000CE01865B9F4F0E94FD0E672B09F017C162
:1020D00080FD15C1C8010E94B20D8D3709F464C09E
:1020E000D8016D917C91C6010E94B20F5C01892BD1
:1020F00009F47EC1C8010E94B20D873209F496C06E
:10210000823209F493C0D8011696ED91FC91228198
:1021100033818481958193838283FA83E9831C824E
:102120001B823E832D83821B930B98878F83C8016C
:102130000E94B20DF82E8111FDC0EE24E394F12C23
:102140007CC0D60114968C91149780788064149684
:102150008C93149711961C921E9213961C921E92A9
:102160001297F8018085882309F446C1C8010E94AE
:10217000B20D8B3519F082E0E82E3CC1D8011A96D9
:102180001C92C8010E94CC0D9A838983CE010196CE
:102190000E94FD0E672B09F046C080FD44C0C801B7
:1021A0000E94B20D8D3591F4F8011286E12C22C106
:1021B00080FD39C0C8010E94B20D8D35A9F3C80158
:1021C0000E94B20D8C32B9F6F8011286D8016D91D9
:1021D0007C91C6010E94B20FBC01892B09F408C191
:1021E000F801908591509087C8010E94E50F9A836D
:1021F0008983D80118968C9118978F5F18968C93C5
:10220000CE0101960E94FD0E672B69F480FD0BC084
:10221000C8010E94CC0D9A838983CE0101960E9449
:10222000FD0E672B29F2E980FA806FC0BE016F5B5B
:102230007F4FC8010E94250F7C012B96EFAE2B9794
:102240002C96FFAE2C97CE01865B9F4F0E94FD0E11
:10225000672B09F05AC080FD58C023962EAD3FADC4
:102260002397D50114968C911497806814968C93BB
:10227000149717963C932E931697C8010E94CC0D85
:102280002C969FAF8EAF2C97CE01865B9F4F0E94FE
:10229000FD0E672BA1F580FD32C0C8010E94B20D72
:1022A0008A3309F068CFF8011286808581508087D3
:1022B000B501C8010E94E50F2C969FAF8EAF2C97F9
:1022C000D80118968C9118978F5F18968C93CE0131
:1022D000865B9F4F0E94FD0E672B89F480FD0FC027
:1022E000C8010E94CC0D2C969FAF8EAF2C97CE01CB
:1022F000865B9F4F0E94FD0E672B09F456C02B96FC
:10230000EFAC2B972C96FFAC2C97C701C35BDF4F2C
:102310000FB6F894DEBF0FBECDBFDF91CF911F91F6
:102320000F91FF90EF90DF90CF90BF90AF909F9074
:102330008F9008950E949A0D42E0E42E882309F4BC
:10234000FECEF80112866F2DCE0101960E940C0F71
:10235000C8010E94B20DF82E0E949A0D8111F1CF92
:1023600060E0CE0101960E940C0F8D819E81892B29
:1023700079F0E981FA818B819C812F813885AC01CC
:10238000421B530B82819381840F951F9383828319
:102390008D819E8123969FAF8EAF2397E12C892B51
:1023A00009F0CDCE33E0E32ECACE80FDA8CFC80120
:1023B0000E94B20D8D3709F4F7CEC8010E94B20D0C
:1023C0008C3209F0D8CED8011A961C92C8010E940E
:1023D000CC0D2C969FAF8EAF2C97CE01865B9F4F76
:1023E0000E94FD0E672B09F08ACF80FF79CE87CF40
:1023F00023E0E22EF12C89CF95E0E92EFBCFBE0140
:102400006F5B7F4FC8010E94250F9A838983CE019D
:1024100001960E94FD0E672B09F005CF80FD03CFCA
:1024200023962EAD3FAD2397F6018481807884609A
:10243000848331832083BACEF501EE0DF11D108225
:1024400089818437B9F4D60114968C9114978078D9
:10245000856014968C9381E090E0A0E0B0E0F601F6
:1024600080839183A283B383F12CF4E0EF121CC02C
:1024700080E01AC0863689F4D60114968C911497A0
:102480008078856014968C93F601108211821282F6
:10249000138281E0F12CF5E0E9CF8E3639F481E04A
:1024A000F12C44E0E41621F3E82E2FCFB501CE0144
:1024B0008F5B9F4F0E94470C25964CAD5DAD6EAD76
:1024C0007FAD25972A968FAD2A97873061F08830A7
:1024D000C1F0863009F04FCED60114968C91149736
:1024E0008078866006C0D60114968C911497807807
:1024F000876014968C93F6014083518362837383C3
:1025000055CE29964CAD5DAD6EAD7FAD2997D60108
:1025100014968C9114978078886014968C93F601A9
:10252000408351836283738341CE2D968FAD2D9767
:102530002E969FAD2E97EACEFF920F931F93CF93C7
:10254000DF93D82F062FF42EC22F61E083E00E9484
:102550009B0110E061E0D13009F060E087E00E946B
:102560009B01B80185E00E947202D0E081E061E049
:10257000F81260E088E00E949B01BE0186E0DF91D6
:10258000CF911F910F91FF900C9472022F923F9266
:102590004F925F926F927F928F929F92AF92BF9273
:1025A000CF92DF92EF92FF920F931F93CF93DF931F
:1025B00000D000D000D01F92CDB7DEB7C82E762E47
:1025C0004F833D832C830E9438034B015C012C2DEB
:1025D000220F2B83FF80612C1E82EE24E3948F2D2B
:1025E00090E09A8389831801512C412CE0922C03AE
:1025F000C0924E0310922D0310924F03672D89EF66
:1026000093E00E94EB0581E00E948D00E0922C0394
:1026100010922D0310924F0380912B038111FCCF58
:10262000E0922B03E0922A032FEF209329031092CC
:1026300028038FEF8F0D80932703E092060380918C
:1026400006033B81832B8093060380910503813031
:10265000C1F510920503809106038093BB00809121
:10266000BC0083FDF8CF85EC8093BC0080912B03E8
:102670008130E1F3809128038F1538F5809128038C
:10268000A7E0B3E0E1E2F2E0D12CD81220C0109232
:102690008502D092840280918502D81639F1011505
:1026A0001105C9F489EF93E00E94A405EC81FD8136
:1026B0002E81E20FF11D27FDFA9580832F5F2E8377
:1026C000EACF95EE9093BC00D1CF8F2DD9CF9D91BD
:1026D0009193D394DACF0E943803681979098A0953
:1026E0009B096215730584059505E0F28F81860DBF
:1026F0003F81F31A66246394831708F477CF01159A
:102700001105C1F00E943803681979098A099B09EB
:1027100030E020E0601771078207930758F02E81A0
:10272000822F220F990B29813A818217930714F483
:102730003FEF3E838E8127960FB6F894DEBF0FBE23
:10274000CDBFDF91CF911F910F91FF90EF90DF9060
:10275000CF90BF90AF909F908F907F906F905F9041
:102760004F903F902F9008950F931F93CF93DF9337
:10277000C8E2D4E008EE13E029E234E042E067E486
:1027800088810E94C61289819A8198278927982773
:10279000DF91CF911F910F910895CF93DF93C5E6FD
:1027A000D0E02197F9F00E94B41390932E05809306
:1027B0002D05092E000CAA0BBB0B40913F05509133
:1027C00040056091410570914205840F951FA61F39
:1027D000B71F80933F0590934005A0934105B093A8
:1027E0004205DFCF60913F05709140058091410522
:1027F0009091420524E630E040E050E00E948433AE
:1028000020933F0530934005409341055093420586
:1028100080E0DF91CF9108952F923F924F925F9287
:102820006F927F928F929F92AF92BF92CF92DF92E0
:10283000EF92FF920F931F93CF93DF9300D000D0BE
:1028400000D01F92CDB7DEB71C01162F4D832F830A
:10285000B0900001B61609F490C020E041E060E0BD
:1028600081E00E949C120E9438036B017C018091E0
:10287000330590913405A0913505B0913605A70137
:102880009601281B390B4A0B5B0BCA01B9010E9448
:10289000653220E030E04AE754E40E948B346093D4
:1028A0003705709338058093390590933A05C092A7
:1028B0003305D0923405E0923505F09236050E943A
:1028C000B41390932E0580932D05092E000CAA0BAE
:1028D000BB0B40913F0550914005609141057091BF
:1028E00042056A017B01C81AD90AEA0AFB0AC70134
:1028F000B6010E94673220E030E043E053E40E94DA
:102900008B3420913705309138054091390550912D
:102910003A050E94C6326B017C019F772DEC3CEC9E
:102920004CE45DE30E94603287FDB2C020913B051C
:1029300030913C0540913D0550913E05C701B601DF
:102940000E941F3460933B0570933C0580933D05C6
:1029500090933E05609310027093110280931202CF
:10296000909313020E94380360931402709315022F
:10297000809316029093170214C00E943803C090EF
:102980001402D0901502E0901602F09017026C1914
:102990007D098E099F096B3071058105910508F04D
:1029A0005CCFC0901002D0901102E0901202F09023
:1029B0001302B11204C08091560581110AC0109310
:1029C0000001C0920C02D0920D02E0920E02F09231
:1029D0000F0220910C0230910D0240910E02509195
:1029E0000F0229833A834B835C833F81632F70E01E
:1029F00090E080E00E9467322B013C014D81642F02
:102A000070E090E080E00E9467324B015C01298118
:102A10003A814B815C81C701B6010E941E34A3013B
:102A200092010E94C632A50194010E941F340E94A7
:102A3000FD3410E0061717077CF17E836D836A3042
:102A4000710524F4AAE0B0E0BE83AD83A70196012E
:102A500069817A818B819C810E941E34A30192013D
:102A60000E94C632A50194010E941F340E94FD34C9
:102A70000617170734F08B016A30710514F40AE069
:102A800010E0232861F02D8140E0602F80E00BC032
:102A9000C12CD12C76014ACF1E830D83D7CF202F96
:102AA00041E06D8181E027960FB6F894DEBF0FBE3E
:102AB000CDBFDF91CF911F910F91FF90EF90DF90ED
:102AC000CF90BF90AF909F908F907F906F905F90CE
:102AD0004F903F902F900C949C12BF92CF92DF9218
:102AE000EF92FF920F931F93CF93DF9300D0CDB758
:102AF000DEB7F82EE62EC42EB22ED02E08EE13E04E
:102B00009E012E5F3F4F41E00E94C612882399F13B
:102B10008C2D8B19990BAC014F5F5F4F81E090E0DA
:102B200002C0880F991FBA94E2F70197042E01C0E2
:102B3000880F0A94EAF70D2D01C0000F4A95EAF7B5
:102B4000982F90952A8192238023892B8A838983C9
:102B5000AE014F5F5F4F6E2D8F2D0E941A060F90B2
:102B60000F90DF91CF911F910F91FF90EF90DF9029
:102B7000CF90BF90089580E0F2CFCF93DF9300D045
:102B80001F92CDB7DEB7833021F08430C9F08111B8
:102B900011C090E0A0E0942BA62BA9839A832B83ED
:102BA00060910504CE0101960E94560B80910504A8
:102BB0000E94B30A0F900F900F90DF91CF9108956C
:102BC00090E0A0E0942BA62BA09302039093030324
:102BD00020930403EBCFFC0101900020E9F731972B
:102BE000AF01481B590BBC018CE593E00C944D04DC
:102BF0000F931F93CF93DF93EC0160E08DE00E9471
:102C00009B0183E090E00197F1F761E08DE00E9485
:102C10009B0183E290E00197F1F760E08DE00E9474
:102C20009B01EAEBF0E06491E6EAF0E0E491F0E089
:102C3000EE0FFF1FE057FF4F8591949100E412E4DF
:102C40002FE030E0462F0E940B21611571058105B0
:102C5000910529F06F5F7F4F8F4F9F4F9F70CB0182
:102C60006AE370E00E9454356739710548F086E9DF
:102C700090E099838883DF91CF911F910F91089500
:102C800079836883F8CF0E94A1370F931F93CF9366
:102C9000DF93EC0188819981009759F02A813B816B
:102CA0002617370730F081E0DF91CF911F910F9108
:102CB00008958B016F5F7F4F0E94E436009759F0B3
:102CC000998388831B830A832C813D81232B59F7A9
:102CD000FC011082E8CF80E0E7CFEF92FF920F93E4
:102CE0001F93CF93DF936115710541F480E0DF916D
:102CF000CF911F910F91FF90EF90089541155105CD
:102D0000B1F07B01EC010C811D81040F151FB8018E
:102D10000E944516882351F3288139818C819D8139
:102D2000B701820F931F0E94B8371D830C8381E087
:102D3000DECFCF93DF93EC0188819981009711F06A
:102D40000E945B36198218821D821C821B821A82A5
:102D5000DF91CF910895CF93DF93EC01409160050F
:102D60005091610560915C0570915D050E946D1642
:102D7000811103C0CE010E949916CE01DF91CF913F
:102D800008950F931F93CF93DF9300D0CDB7DEB795
:102D90008C0169831A8241E050E0BE016F5F7F4F72
:102DA0000E946D16811103C0C8010E949916C801C6
:102DB0000F900F90DF91CF911F910F910895CF93B6
:102DC000DF93EC01FB0101900020E9F73197AF019F
:102DD000461B570B0E946D16811103C0CE010E9445
:102DE0009916CE01DF91CF910895EF92FF920F9344
:102DF0001F93CF93DF93EC017B018A01BA010E94FC
:102E0000451681110BC0CE010E949916CE01DF91AB
:102E1000CF911F910F91FF90EF9008951D830C8328
:102E2000B701888199810E94B837F0CFFB010190EA
:102E30000020E9F73197AF01461B570B0C94F516AC
:102E4000CF93DF9300D0CDB7DEB7FC0111821082A3
:102E500013821282158214822BE729831A82BE0103
:102E60006F5F7F4F0E9416170F900F90DF91CF91E9
:102E70000895FC0180819181009711F00C945B36DC
:102E800008958EEE92E00C943917EF92FF920F9313
:102E90001F93CF93DF93CDB7DEB7C054D1090FB6E0
:102EA000F894DEBF0FBECDBF7C01162F1F86188A97
:102EB000198A1A8A1B8A81E08C8B80E090E0A0EE50
:102EC000B0E48D8B9E8BAF8BB88F04E1098F1B8E86
:102ED0001A8E1D8E1C8E1F8E1E8E50E040E061EB00
:102EE00071E0CE014A960E94F5168AEF88A38AA364
:102EF00082E593E09CA38BA386EB93E09EA38DA336
:102F000021960FAF21974091E4025091E502CA014A
:102F100002970FEF2AE08A30910540F4FC01ED5D45
:102F2000FE4F2081875E9E4FFC010081F9E0EF1685
:102F3000F10408F074C0F701E056F84E0C947C35AB
:102F4000A917BA17DE17E617EC17F217F8170018CB
:102F500008184130510519F4212F41E034C0412FA8
:102F60006091180290E080E00E940C1481E0809350
:102F7000180209C041305105C1F4212F40E0612FF2
:102F800080E00E949C12CE014A960E943917C05CD4
:102F9000DF4F0FB6F894DEBF0FBECDBFDF91CF91EC
:102FA0001F910F91FF90EF900895412F60911802AB
:102FB00081E090E00E940C1482E0D9CF83E08093FE
:102FC0001802212F40E0612F81E0DBCF84E0809365
:102FD0001802212F41E0D3CF85E080931802212FE2
:102FE0002695BBCF86E080931802212F2695C6CF69
:102FF00087E080931802612F6695212F41E0E4CF8E
:1030000088E080931802612F6695212F40E0B8CFA9
:1030100089E08093180220E041E060E0D5CF8AE0AB
:10302000A6CF823069F018F4813031F008958330F2
:1030300051F0843059F0089582E090E00C944517E7
:1030400083E090E0FBCF90E080E0F8CF81E090E07B
:10305000F5CF0F931F93CF93DF93FC01248125FFBE
:103060001FC08B01C081D1812097D1F06E817F81FB
:1030700060177107E1F00115110541F06115710547
:1030800029F0C8010E94AF37882389F08D818823F9
:1030900039F0F8E08F02C0011124C80FD91FE4CF26
:1030A00080E090E0DF91CF911F910F910895CE01C4
:1030B000F9CFCF92DF92EF92FF920F931F93CF93AE
:1030C000DF93EC01CA0108960E9429188C01009731
:1030D00009F463C0FC0184818F77873009F447C00D
:1030E000883091F0863009F058C0208131812C174A
:1030F0003D070CF44FC091E080E0C217D3070CF0FD
:1031000090E0292F382F26C0BE01DD0F880B990BC8
:103110000E9467329B01AC01F8016081718182815C
:1031200093810E941E346B017C0120E030E0A901F4
:103130000E94603287FD2EC0D1E0C0E020E030E088
:10314000A901C701B6010E94333518160CF0D0E072
:103150002D2F3C2F81E0232B09F080E0DF91CF91D0
:103160001F910F91FF90EF90DF90CF9008956081B5
:103170007181C60FD71F2FEF3FEFD7FD07C091E03A
:1031800080E0CD2B09F490E0292F382F319521953F
:103190003109E0CF2FEF3FEFDDCF21E030E0DACF94
:1031A0008F929F92AF92BF92CF92DF92EF92FF9257
:1031B0000F931F93CF93DF93CDB7DEB7C85ED109CE
:1031C0000FB6F894DEBF0FBECDBFCE010E969A8328
:1031D00089839C838B838E010A521F4F1E830D832C
:1031E00018870F838D8580788D872091F20230912A
:1031F000F3028091EE029091EF02009711F481EBBF
:1032000091E0AE014F5F5F4F6A01F8015183408347
:1032100093838283820F931F95838483578346838E
:103220008AE080871286BE01675F7F4FC8010E94D7
:10323000E50FCF51DF4F99838883C15ED040CE0127
:103240008F519F4F0E94FD0E672BB1F480FD14C07B
:10325000F8018185882381F08D85982F907661F41F
:103260008F778350823040F082E090E0CF51DF4F83
:1032700099838883C15ED040CF51DF4F8881998187
:10328000C15ED040C951DF4F99838883C75ED0406B
:1032900061EB71E08EEE92E00E941617CE0189512B
:1032A0009F4F0E94FD0E672B09F06BC080FD69C027
:1032B000CE0189519F4F0E94FD0E672B09F04DC032
:1032C0007C01F1E0EF22FF2480FD47C06BEC71E050
:1032D000CE0109960E942918FC01892B59F094818E
:1032E0009F77973008F056C0953008F05DC0933056
:1032F00008F077C06DEC71E0CE0109960E942918A4
:10330000FC01892B09F4A7C094819F7793509230D8
:1033100008F0A1C0608171816115710509F49BC03D
:103320008CE595E00E941617F5E1EF16F10409F41B
:103330003DC20CF0BFC044E0E416F10409F4A3C19F
:103340000CF08EC082E0E816F10409F44CC10CF0D8
:103350007FC1EA94EF2809F412C1C851DF4F0FB6BC
:10336000F894DEBF0FBECDBFDF91CF911F910F91BB
:10337000FF90EF90DF90CF90BF90AF909F908F9095
:10338000089582EB91E00E94EB1588EC91E00E9499
:10339000EB15E3CF9730A9F0983009F0ABCF8080E0
:1033A0009180A280B3803CC080819181A281B38151
:1033B000811520E89207A105B10508F09BCF7C019B
:1033C00099CF80819181A281B381813040E89407B7
:1033D000A105B10508F08ECFEE24FF24E81AF90A02
:1033E00089CF60817181C8010E94470CF8018081FA
:1033F0009181A281B3812085273031F0283061F09E
:10340000263009F077CFD4CF8130F0E89F07A105AF
:10341000B10508F06FCFE0CF84809580A680B7809B
:1034200020E030E040E057ECC501B4010E943335A4
:1034300087FD60CF20E03EEF4FEF56E4C501B401B9
:103440000E94603218160CF455CFC501B4010E94D9
:10345000FD347B014FCF8CE595E00E94991664CF37
:1034600027E0E216F10409F429C148E0E416F1046A
:1034700009F46DC155E0E516F10409F06ECF8DE059
:1034800090E09093E5028093E4026FEC71E0CE014E
:1034900009960E9429180E94700E8093690562EDBA
:1034A00071E0CE0109960E9429180E94700E809347
:1034B0006A0589C085E6E816F10409F437C2ACF460
:1034C000F7E1EF16F10409F423C20CF4D4C187E04C
:1034D00090E044E6E416F10409F03FCF9093E50252
:1034E0008093E40284EF91E052CF59E6E516F104AF
:1034F00009F441C29CF5E6E6EE16F10409F02DCF81
:1035000084E090E09093E5028093E4026FEC71E038
:10351000CE0109960E9429180E94700E182F8093E0
:10352000630562ED71E0CE0109960E9429180E94A0
:10353000700E809362051150193008F0E2C2E12F3D
:10354000F0E0EB55F54E0C947C35581D5D1D641D67
:10355000671D6A1D6D1D701D731D761DFAE6EF1641
:10356000F10409F42DC22EE6E216F10409F0F5CEBD
:1035700088E090E09093E5028093E40224C089E023
:1035800090E09093E5028093E4026FEC71E0CE014D
:1035900009960E9429180E94700E80936B0562EDB7
:1035A00071E0CE0109960E9429180E94700E809346
:1035B0006D0565ED71E0CE0109960E9429180E9403
:1035C000700E80936C05C8010E942017C8010E94EC
:1035D000AB1668ED71E00E94DF160E947A04C80104
:1035E0000E943917BACE8AE090E09093E50280936A
:1035F000E4026FEC71E0CE0109960E9429180E9446
:10360000700E8093720562ED71E0CE0109960E9402
:1036100029180E94700E809373056DED71E0CE0144
:1036200009960E9429180E940F0E609374057093EA
:10363000750580937605909377050E943803609313
:10364000E6027093E7028093E8029093E90285CE48
:103650008BE090E09093E5028093E4026FEC71E0E0
:10366000CE0109960E9429180E94700E809372055F
:1036700062ED71E0CE0109960E9429180E94700E39
:1036800080937305A0CF8CE090E09093E502809347
:10369000E4026FEC71E0CE0109960E9429180E94A5
:1036A000700E8093780562ED71E0CE0109960E945C
:1036B00029180E94700E8093790585CF8EE090E0E6
:1036C0009093E5028093E4026FEC71E0CE010996DD
:1036D0000E9429180E94700E80937A0562ED71E0B5
:1036E000CE0109960E9429180E94700E80937B05D6
:1036F00065ED71E0CE0109960E9429180E94700EB6
:1037000080937C056FED71E0CE0109960E94291827
:103710000E94700E80937D056DED71E0CE010996DB
:103720000E9429180E940F0E60937E0570937F05FA
:1037300080938005909381050E9438036093EA028C
:103740007093EB028093EC029093ED0206CE8FE033
:1037500090E09093E5028093E4026FEC71E0CE017B
:1037600009960E9429180E94700E80937A0562EDD6
:1037700071E0CE0109960E9429180E94700E809374
:103780007B0565ED71E0CE0109960E9429180E9423
:10379000700E80937C056FED71E0CE0109960E945A
:1037A00029180E94700E80937D050DCF6FEC71E09B
:1037B000CE0109960E9429180E94700EF82E89E405
:1037C00095E00E94F81540915B0550E070E060E0E4
:1037D0008091490590914A05B0E0A0E021E04817AA
:1037E00059076A077B070CF420E020935205E1E0BB
:1037F000FE120FC0481759076A077B070CF48DC0EB
:10380000C8010E942017C8010E94AB1662EE71E049
:10381000E2CEF2E0FF12A1CD8091490590914A05D8
:103820009F938F9381EF91E09F938F931F930F93BB
:103830000E94BF37CE018F519F4F0E942017CE01AB
:103840008F519F4F0E94AB166FE50E94C116B801C1
:103850000E94DF166DE70E94C1160E947A04CE0115
:103860008F519F4F0E9439170F900F900F900F901C
:103870000F900F9072CD6FEC71E0CE0109960E940F
:1038800029180E94700E811135C080914B059091CE
:103890004C059F938F9381EF91E09F938F931F939C
:1038A0000F930E94BF37CE018F519F4F0E94201768
:1038B000CE018F519F4F0E94AB166FE50E94C1163B
:1038C000B8010E94DF166DE70E94C1160E947A04BB
:1038D000CE018F519F4F0E9439170F900F900F907C
:1038E0000F900F900F9086E090E09093E502809308
:1038F000E40233CD813029F480914D0590914E053D
:10390000C8CF823081F780914F0590915005C1CF8B
:1039100080915605882309F473CFC8010E942017AF
:10392000C8010E94AB1669EE71E055CEA6016FEC9E
:1039300071E081E090E00E945918882319F081E03D
:1039400090E0CCCDA6016FEC71E082E090E00E94A7
:103950005918882319F082E090E0C0CDA6016FECE1
:1039600071E083E090E00E945918882309F4BACDF1
:1039700083E090E0B3CDA6016FEC71E081E090E0D0
:103980000E945918882321F0809182058A3F70F0A7
:10399000A6016FEC71E082E090E00E94591881115D
:1039A00009C08091820580930504D7CC8B5F8093FA
:1039B0008205F7CF80918205882399F38550F7CF50
:1039C0006FEC71E0CE0109960E9429180E94700EDA
:1039D0009FEF980F953008F0C0CC833028F08530E9
:1039E00090F1853009F45CC02091110130911201F1
:1039F000813031F5215031093093120120931101AA
:103A00008091110190911201049734F483E090E0C9
:103A100090931201809311018091110190911201F4
:103A20000B9734F08BE090E090931201809311019A
:103A3000609111017091120182E00E94D50952CD6E
:103A40002F5F3F4FD9CF20910F013091100183306C
:103A500021F52F5F3F4F3093100120930F0180918C
:103A60000F0190911001029734F481E090E090935F
:103A7000100180930F0180910F01909110014197E7
:103A800034F081E190E09093100180930F016091F8
:103A90000F017091100181E0D0CF21503109DBCFAF
:103AA00069E070E082E00E94D50969E070E0F3CF40
:103AB0001092E3021092E20250CC81E090E09093E9
:103AC000E3028093E20249CC82E090E0F8CF83E009
:103AD00090E0F5CF84E090E0F2CF85E090E0EFCF8A
:103AE00086E090E0ECCF87E090E0E9CF88E090E0DE
:103AF0009093E3028093E2021092E5021092E402B6
:103B00002CCC88E090E0DBCF1F920F920FB60F9283
:103B100011242F933F938F939F93AF93BF938091E3
:103B2000DA029091DB02A091DC02B091DD023091CB
:103B3000D90223E0230F2D3758F50196A11DB11DA1
:103B40002093D9028093DA029093DB02A093DC02E7
:103B5000B093DD028091DE029091DF02A091E0023D
:103B6000B091E1020196A11DB11D8093DE029093F8
:103B7000DF02A093E002B093E102BF91AF919F9169
:103B80008F913F912F910F900FBE0F901F9018951E
:103B900026E8230F0296A11DB11DD2CF1F920F92CE
:103BA0000FB60F9211242F933F934F935F936F9310
:103BB0007F938F939F93AF93BF93EF93FF93E09186
:103BC0000301F09104010995FF91EF91BF91AF912D
:103BD0009F918F917F916F915F914F913F912F9125
:103BE0000F900FBE0F901F9018951F920F920FB657
:103BF0000F9211242F933F934F935F936F937F9373
:103C00008F939F93AF93BF93EF93FF93E091010145
:103C1000F09102010995FF91EF91BF91AF919F91B2
:103C20008F917F916F915F914F913F912F910F9065
:103C30000FBE0F901F9018951F920F920FB60F9204
:103C400011242F933F934F935F936F937F938F93A1
:103C50009F93AF93BF93EF93FF938CE593E00E9404
:103C6000D404FF91EF91BF91AF919F918F917F917C
:103C70006F915F914F913F912F910F900FBE0F90D9
:103C80001F9018951F920F920FB60F9211242F9329
:103C90008F939F93EF93FF93E0916C03F0916D03EB
:103CA0008081E0917203F091730382FD1BC09081CB
:103CB000809175038F5F8F7320917603821741F097
:103CC000E0917503F0E0E45AFC4F958F8093750303
:103CD000FF91EF919F918F912F910F900FBE0F90B9
:103CE0001F9018958081F4CF1F920F920FB60F92FC
:103CF00011242F933F934F935F936F937F938F93F1
:103D00009F93AF93BF93EF93FF938091B900887F08
:103D1000803609F44AC0F0F5883209F4A5C018F5D8
:103D2000803109F499C0B8F4882309F4F5C08830CB
:103D300009F492C0FF91EF91BF91AF919F918F9144
:103D40007F916F915F914F913F912F910F900FBE97
:103D50000F901F901895883109F486C0803251F772
:103D60008093290314C0803409F49BC040F480334D
:103D7000B9F38833F9F68093290385ECAEC080351A
:103D800009F483C0883509F494C0883499F60E94F8
:103D90006305D0CF883909F48AC038F5883729F00F
:103DA00050F4883611F0803729F683E080932B0396
:103DB0001092830255C0883809F479C0803919F00F
:103DC000803809F0B7CF80918302803208F06FC04D
:103DD000E091830281E08E0F809383028091BB008B
:103DE000F0E0ED59FD4F80833BC0803B39F0D0F4CB
:103DF000803A09F477C0883A09F09CCF84E0809338
:103E00002B031092620210926102F0E0E0E009954B
:103E10008091610281110FC081E080936102109254
:103E2000410209C0803C09F4A8CF883C09F4A5CF21
:103E3000883B09F07FCFE091620281E08E0F809392
:103E40006202F0E0EF5BFD4F80818093BB009091B8
:103E500062028091610229C0809106038093BB00B9
:103E600085EC8093BC0066CF909128038091270356
:103E7000981758F5E091280381E08E0F809328036E
:103E8000F0E0E95FFC4F8081E9CFE091280381E019
:103E90008E0F809328038091BB00F0E0E95FFC4F18
:103EA000808390912803809127039817C8F285E8B2
:103EB000D8CFE091280381E08E0F80932803809172
:103EC000BB00F0E0E95FFC4F808380912A03811101
:103ED0005ECF81E08093050384EA8093BC0010925A
:103EE0002B0328CF85EC8093BC0010922B0380918C
:103EF0008302803230F4E0918302F0E0ED59FD4F0F
:103F000010826091830270E083E692E0F0E0E0E0EE
:103F10000995109283020ECF1092290338CF1F9279
:103F20000F920FB60F9211242F933F934F935F93ED
:103F30006F937F938F939F93AF93BF93CF93DF93B1
:103F4000EF93FF9380912002C0912905D0E087FF75
:103F500024C01092850010928400809120028F5F0F
:103F60008093200280912002082E000C990B8C1760
:103F70009D0724F4809120028C30C4F1809184004C
:103F800090918500049680349C4908F47AC0809111
:103F9000840090918500049676C080912002082EBE
:103FA000000C990B8C179D07C4F6E09120028E2F10
:103FB000EE0F990BFC01EE0FFF1FE80FF91FEB5FEF
:103FC000FA4F808186FFC9CFE09120028E2FEE0F3D
:103FD000990BFC01EE0FFF1FE80FF91FEB5FFA4F83
:103FE000808160E08F730E949B01B7CF2091840095
:103FF00030918500E09120028E2FEE0F990BFC018D
:10400000EE0FFF1FE80FF91FEB5FFA4F81819281DE
:10401000820F931F9093890080938800E091200283
:104020008E2FEE0F990BFC01EE0FFF1FE80FF91F0B
:10403000EB5FFA4F808186FF11C0E09120028E2F46
:10404000EE0F990BFC01EE0FFF1FE80FF91FEB5F5E
:10405000FA4F808161E08F730E949B01FF91EF9185
:10406000DF91CF91BF91AF919F918F917F916F9190
:104070005F914F913F912F910F900FBE0F901F9026
:10408000189580E49CE990938900809388008FEFD5
:1040900080932002E3CF1F920F920FB60F9211244C
:1040A0002F933F934F935F936F937F938F939F9340
:1040B000AF93BF93CF93DF93EF93FF932091370498
:1040C00030E0F901E458FF4F8491F901E255FF4FC8
:1040D000D491F901E656FF4FC491CC2379F08111B8
:1040E0000E947201EC2FF0E0EE0FFF1FE057FF4F30
:1040F000A591B491EC91ED2381E009F480E0209149
:104100003A0430913B042F5F3F4F30933B042093A0
:104110003A0490910405943618F095E09093380491
:1041200090913804933009F44CC0E0F4923011F1CE
:1041300090913904992319F081116BC02D9AFF9148
:10414000EF91DF91CF91BF91AF919F918F917F912F
:104150006F915F914F913F912F910F900FBE0F90F4
:104160001F901895943009F448C0953009F78111D3
:10417000DFCF09C08111DCCF20913A0430913B049C
:104180002436310528F410923B0410923A04D0CF23
:1041900010920405E091040591E09E0F90930405B0
:1041A000F0E020913A0430913B04EE0FFF1FE95CF0
:1041B000FB4F3683258310923B0410923A0493E020
:1041C00019C0813009F0B4CFE091040591E09E0F51
:1041D00090930405F0E020913A0430913B04EE0FF7
:1041E000FF1FE95CFB4F3683258310923B0410923E
:1041F0003A0494E0909338049BCF882359F220919D
:104200003A0430913B042536310508F491CF95E00E
:10421000F1CF2D9894CFCF92DF92EF92FF920F9330
:104220001F93E82FF92F05C0015011092109310909
:1042300061F1908196239417B9F305C001501109DB
:104240002109310911F1908196239413F7CFC12CE4
:10425000D12CE12CF12C0AC08FEFC81AD80AE80A39
:10426000F80A0C151D052E053F0579F0808186237F
:10427000841791F36C2D7D2D8E2D9F2D1F910F9105
:10428000FF90EF90DF90CF90089560E070E080E0C5
:1042900090E01F910F91FF90EF90DF90CF900895E5
:1042A000CF9310925F0310925E0388EE93E0A0E03C
:1042B000B0E08093600390936103A0936203B09396
:1042C000630323E831E030935D0320935C0325EC26
:1042D00030E0309369032093680324EC30E030939E
:1042E0006B0320936A0320EC30E030936D0320933E
:1042F0006C0321EC30E030936F0320936E0322ECCB
:1043000030E0309371032093700326EC30E030935B
:104310007303209372031092750310927603109228
:104320007703109278031092FC031092FB038093A2
:10433000FD039093FE03A093FF03B093000485E96F
:1043400091E09093FA038093F9039FEF9093050413
:104350001092070410920604109211041092100497
:104360004FEF5FEFBA0140930C0450930D0460933C
:104370000E0470930F0488E68093280410921804AA
:104380001092190410921A0410921B041092200427
:1043900010922104109222041092230410922404FB
:1043A000109225041092260410922704809129056A
:1043B0008C3008F074C091E0980F90932905809399
:1043C0002A0590E0FC01EE0FFF1FE80FF91FEB5FDD
:1043D000FA4F88EB9BE09283818389E080933704D6
:1043E0001092390410925105109252051092530503
:1043F000109254051092550581E08093560580E097
:1044000090E0A0EEB0E48093570590935805A093F8
:104410005905B0935A05C4E1C0935B0510925D0540
:1044200010925C0510925F0510925E051092610576
:104430001092600550E040E061EB71E08CE595E0A2
:104440000E94F5168AEF809362058093640582E5E9
:1044500093E0909366058093650586EB93E09093D7
:10446000680580936705C09382051092330510920A
:104470003405109235051092360510923B051092C6
:104480003C0510923D0510923E0510923F0510929A
:1044900040051092410510924205CF9108959093E6
:1044A0002A059BCFCF93DF93CDB7DEB7AD970FB67D
:1044B000F894DEBF0FBECDBF789484B5826084BD12
:1044C00084B5816084BD85B5826085BD85B5816018
:1044D00085BD80916E00816080936E001092810096
:1044E0008091810082608093810080918100816051
:1044F0008093810080918000816080938000809112
:10450000B10084608093B1008091B000816080939D
:10451000B00080917A00846080937A0080917A0064
:10452000826080937A0080917A00816080937A0023
:1045300080917A00806880937A001092C100E091A7
:104540006C03F0916D0382E08083E0916803F09149
:1045500069031082E0916A03F0916B038FEC808312
:1045600010927403E0917003F091710386E08083F0
:10457000E0916E03F0916F03808180618083E09110
:104580006E03F0916F03808188608083E0916E03F9
:10459000F0916F03808180688083E0916E03F091D9
:1045A0006F0380818F7D808360E081E10E94C9017B
:1045B00061E085E00E94C90161E086E00E94C901D6
:1045C00061E087E00E94C90161E088E00E94C901C2
:1045D00061E083E00E94C90164EF71E08AE090E04D
:1045E0000E9405028AE090E00E946E028AE590E057
:1045F0000E94EA0084EF91E00E94AC0964EF71E050
:104600008BE090E00E9405028BE090E00E946E0239
:104610008AE590E00E94EA0084EF91E00E94AC09F4
:10462000E0912A058E2F90E0FC01EE0FFF1FE80FAE
:10463000F91FEB5FFA4F80818F7B808362E082E01D
:104640000E94C9018BE799E09093020180930101D8
:10465000809169008C7F826080936900E89A8091E4
:104660009902811145C010928B0210928A028FEF3D
:1046700080938E0280938F028093900280939102A8
:10468000809392028093930281E08093940210922F
:1046900096021092950210928D0210928C028091D7
:1046A000500390915103892B31F488E892E0909364
:1046B000510380935003E0918602F0918702309776
:1046C00021F088E892E09583848388E892E09093D3
:1046D000870280938602109298021092970281E7D7
:1046E00091E0909389028093880281E080939902FF
:1046F000549A82E093E090938B0280938A0281E047
:1047000090E0909396028093950280910804909196
:104710000904A0910A04B0910B04843C29E092079B
:10472000A105B10520F484EC99E0A0E0B0E080930D
:10473000080490930904A0930A04B0930B0484E145
:1047400080930504F89482E08093B0008093B100D8
:1047500094E69093B3001092B20080937000789426
:1047600080933804109204058091370460E00E9421
:10477000C90160E08CE00E94C90161E08DE00E9407
:10478000C90160E080E10E94C90160E08FE00E9401
:10479000C90160E08EE00E94C9011092850210926A
:1047A000840210922D0310924F0310922B0381E08C
:1047B00080932A031092050361E082E10E949B012D
:1047C00061E083E10E949B018091B9008E7F80931C
:1047D000B9008091B9008D7F8093B90088E48093FF
:1047E000B80085E48093BC007AE0872E912CA12C40
:1047F000B12C08EE13E09E012F5F3F4F41E065E7CB
:10480000809128040E94C612882339F089818E770E
:1048100090E095958795809329041091290489EF5C
:1048200091E00E94EB15212F30E050E040E019A20A
:104830006E0181E2C80ED11CCA01B901A501940123
:104840000E94ED33605DD6016E936D012115310537
:104850004105510589F7109719F0CD010E94EB151C
:1048600088EC91E00E94EB156AE070E080E090E057
:104870000E940603F394BBE0FB1691F111501E3F1A
:1048800008F0B7CF01E023E042E06BE68091280416
:104890000E946D1500E022E044E06BE18091280465
:1048A0000E946D1522E044E06CE1809128040E9492
:1048B0006D15F090280408EE13E09E012F5F3F4F26
:1048C00041E06BE68F2D0E94C61289818F7B898320
:1048D0008CA3AE014C5D5F4F6BE68F2D0E941A06D4
:1048E0000E94CD131092E5021092E40288E19FE04D
:1048F0000FB6F894A895809360000FBE9093600067
:1049000044244A94542C320122242394312CA89517
:104910000E9438030091A1021091A2022091A302EB
:104920003091A402601B710B820B930B6B307105ED
:104930008105910508F456C00E9438036093A102D6
:104940007093A2028093A3029093A40281E10E943B
:10495000CF02BC01990F880B990B0E9467322AE99C
:1049600039E949E15DE30E94C6326B017C012AE02E
:1049700037ED43EA5DE30E94C6329B01AC01C701FB
:10498000B6010E941F3460934305709344058093E1
:1049900045059093460560914305709144058091CB
:1049A0004505909146052091570530915805409155
:1049B000590550915A050E94603287FFF9C08091D5
:1049C00005019091060101969093060180930501DF
:1049D000843F914039F481E08093510510920601A3
:1049E000109205018EE00E94CF02909350058093B3
:1049F0004F05409165055091660580914F05909156
:104A00005005092E000CAA0BBB0B0091640510E0A9
:104A100030E020E080179107A207B30744F070E070
:104A200060E021E0481759076A077B070CF420E093
:104A3000209353058FE00E94CF0290934E05809300
:104A40004D05409165055091660580914D05909109
:104A50004E05092E000CAA0BBB0B0091640510E05B
:104A600030E020E080179107A207B30744F070E020
:104A700060E021E0481759076A077B070CF420E043
:104A80002093540580E10E94CF0290934C058093BF
:104A90004B05409165055091660580914B059091BD
:104AA0004C05092E000CAA0BBB0B0091640510E00D
:104AB00030E020E080179107A207B30744F070E0D0
:104AC00060E021E0481759076A077B070CF420E0F3
:104AD000209355050E94D70E8091A5029091070161
:104AE000981751F080930701823009F473C008F0E1
:104AF00062C0813009F469C00E94F10B80915105B8
:104B00008823E9F00E9438030091AC021091AD02B5
:104B10002091AE023091AF02601B710B820B930BA0
:104B2000693B7B408105910550F00E9438036093FA
:104B3000AC027093AD028093AE029093AF020E94DC
:104B400038030091AC021091AD022091AE02309179
:104B5000AF02DC01CB01801B910BA20BB30B2091A8
:104B60005105B7FD11C0853FE1E09E07A105B105E4
:104B700014F421113DC0845F9140A109B109853C25
:104B80009940A105B10510F021116DC08091E4029A
:104B90009091E5028230910509F4E0C008F074C0FC
:104BA000009709F47EC040E050E80197B1F15BC086
:104BB0001092510517CF8330A1F0843009F09CCFBB
:104BC0001092E5021092E40297CF3092E502209213
:104BD000E40292CF22E030E03093E5022093E40239
:104BE0008BCF83E090E09093E5028093E40284CF42
:104BF0008A3F9105A105B105C8F4883C9105A1053E
:104C0000B10590F484369105A105B10540F4C29731
:104C1000A105B10548F040E050E060E03EC08639B3
:104C20009105A105B105B8F74FEFF6CF803921E026
:104C30009207A105B10560F48E3531E09307A10517
:104C4000B10590F78C329140A105B10520F7ECCF6A
:104C5000823CF1E09F07A105B105E8F2843F914055
:104C6000A105B10508F38091E4029091E502039754
:104C700009F040C180915605811177C060E088E05D
:104C800090E00E944517D4C08330910509F469C0B3
:104C90004EEE52E86EEE049731F782E00E94480B28
:104CA000E2CF2223C9F04FEF50E060E082E00E94A3
:104CB000480B6EE170E080E090E00E94060340E067
:104CC00050E060E082E00E94480B6EE170E080E01E
:104CD00090E00E940603C7CF0E9438030091A8020B
:104CE0001091A9022091AA023091AB02601B710BB6
:104CF000820B930B6B30710581059105C0F010910B
:104D0000A6020E9438036093A8027093A9028093C0
:104D1000AA029093AB028091A702811117C01F5F76
:104D20001093A602143619F481E08093A7028EEE48
:104D30008093020392E8909303038093040380918D
:104D4000A602809305040E94B30A8DCF11501093E0
:104D5000A6021111ECCF1092A702E9CF4FEF5FEF3F
:104D60005CCF40E050E06FEF98CF85EB92E00E947F
:104D7000F8158091B5029091B602459770F481E0E4
:104D800080930A018093090180910801813009F024
:104D9000A1C064E690E080E074CF60E088E090E03D
:104DA0000E94451780910901833009F082C08091EB
:104DB00008019091B402981799F08093B402813061
:104DC00009F055C00E9438036093B0027093B1029D
:104DD0008093B2029093B30280E590E00E94270A8C
:104DE0000E9438030091B0021091B1022091B202EA
:104DF0003091B302601B710B820B930B693E7340C1
:104E000081059105A8F083E0809309018091080154
:104E10008F5F8093080180910A018F5F80930A0160
:104E2000853030F081E08093080185E080930A01AD
:104E30008091E4029091E502029709F09CC0809174
:104E4000560581115CC060E088E090E00E94451743
:104E50008091E4029091E502019709F036C28091B9
:104E600056058111AFC060E088E090E0D3C1823088
:104E700069F40E9438036093B0027093B10280938A
:104E8000B2029093B30284E190E0A8CF833009F49A
:104E900099CF843009F0A4CF0E9438036093B00208
:104EA0007093B1028093B2029093B30286E990E0CE
:104EB00095CF813009F094CF82E0809309010E9460
:104EC00038036093B0027093B1028093B202909362
:104ED000B30286CF823021F466E983E090E0D1CE40
:104EE000833009F456CF843009F0A2CF66E982E01E
:104EF00090E0C7CE1092B6021092B50299CF809181
:104F00000B01882331F08AE590E00E94270A109275
:104F10000B01CE0101960E94F81589819A8145976F
:104F200070F560E088E090E00E9445170EE110E027
:104F3000FF24F394C8010E94270A81E090E00E94B8
:104F4000AC09CE0101960E94F81589819A81459796
:104F5000D0F083E0F81659F195E0F91661F1A1E07F
:104F6000FA1205C066E983E090E00E94451782E3EB
:104F700090E00E94AC0981E080930B0169CF66E963
:104F800090E080E063CF60E088E090E00E94451709
:104F9000045C1F4FB5E0FB1212C066E981E090E0AF
:104FA0000E94451784EF91E00E94AC09DBCF66E9CF
:104FB00090E080E0DACF66E982E090E0D6CFF3942B
:104FC000F394B8CF8091650590916605B0E0A0E0BC
:104FD0004091640550E070E060E000914D05109153
:104FE0004E05012E000C220B330B04171507260764
:104FF00037070CF4C0C080179107A207B3070CF461
:10500000BAC064E690E080E00E94451781E080939A
:105010000D0180930C018091E4029091E5028430AF
:10502000910509F064C1609162058091E20290915E
:10503000E3020E9445178CE394E09093FF02809373
:10504000FE028091040590E0909301038093000399
:1050500080913804853009F072C080913E049091AF
:105060003F04885891098D35910508F0ADC18091B4
:105070000405843009F07CC1809140049091410482
:105080008097479708F074C180914204909143043F
:105090000997099708F06CC11092FD021092FC026A
:1050A0004092F8025092F9026092FA027092FB026A
:1050B0003092F5022092F4020E9438036093C102FC
:1050C0007093C2028093C3029093C4028091F8024D
:1050D0009091F902A091FA02B091FB028F34E0EBBB
:1050E0009E07EFEFAE07B10509F405C708F080C6CB
:1050F000873C28E392072FEFA207B10509F409C7FF
:1051000008F045C68F3EE0E19E07EFEFAE07B10520
:1051100009F4CAC608F022C68B3B2DE1920721E5AF
:10512000A207B10509F44AC68D3F9240AF4FB105C1
:1051300009F4DBC682E08093380410920405809164
:10514000C002882309F416C7EDA1E250ED3008F043
:10515000E4C6F0E0E255F74D0C947C35233028305E
:105160002F3036303D304230493050305C30643082
:10517000703078307A3000914F0510915005012E33
:10518000000C220B330B041715072607370734F0E2
:1051900080179107A207B3070CF03FC000914B05A1
:1051A00010914C05012E000C220B330B0417150730
:1051B00026073707B4F580910D01882389F01092F6
:1051C0000D010E9438036093B7027093B802809378
:1051D000B9029093BA0260E088E090E00E9445171F
:1051E0000E943803C090B702D090B802E090B90294
:1051F000F090BA026C197D098E099F09693C71050E
:1052000081059105B8F480910C01882341F164E691
:1052100083E090E00E944517FECE64E683E090E0D4
:10522000F3CE80179107A207B3072CF264E682E061
:1052300090E0EACE0E94380300EC19EF2FEF3FEF29
:105240000C191D092E093F09DC01CB01800F911FAC
:10525000A21FB31F81399140A105B105A0F20E94A0
:10526000380308E31FEF2FEF3FEF0C191D092E093C
:105270003F09DC01CB01800F911FA21FB31F8937AB
:105280009540A105B105C8F00E94380308E414EF69
:105290002FEF3FEF0C191D092E093F09DC01CB014F
:1052A000800F911FA21FB31F853F9140A105B1053B
:1052B00008F0B1CE10920C01D6CD80910C0188235C
:1052C00019F364E682E090E0A5CF80910D01811191
:1052D000A2CE81E080930C0180930D011092B70261
:1052E0001092B8021092B9021092BA0294CE892B91
:1052F00009F0A1CE60E088E090E00E94451780911F
:105300000E01882309F497CE0E9438030091BC0255
:105310001091BD022091BE023091BF02601B710B43
:10532000820B930B653171058105910508F483CEDD
:105330000E9438036093BC027093BD028093BE024A
:105340009093BF020E94D70E882379F08091BB0210
:105350008F5F8093BB028091BB028B3008F46BCED1
:1053600010920E010E94CD1366CE1092BB02F3CFB5
:1053700080910405843440F180914004909141046F
:10538000825491098E9700F590E080E040E050E073
:10539000BA01FC01EE5BFB4F2081318129503109BC
:1053A0002930310588F4FC01EC5BFB4F2081318111
:1053B000265131092131310530F1208131812650CA
:1053C000310927303105C0F1809104058A3108F494
:1053D00068C080913C0490913D04843F914088F5E1
:1053E0001092FD021092FC024092F8025092F902D3
:1053F0006092FA027092FB0289E090E09093F502CD
:105400008093F40259CE440F551F661F771F4160E9
:1054100004968038910509F0BCCFA0E2B0E0B093CB
:10542000FD02A093FC024093F8025093F9026093AE
:10543000FA027093FB023CCE440F551F661F771F84
:10544000E7CF80913E0490913F0485974B9748F5B4
:10545000E7E3F4E082E090E040E050E0BA01A091A0
:1054600004059C012F5F3F4FA217130609F00CF4AF
:10547000F2C021853285275031092730310508F0E7
:10548000EAC023853485235131092F30310508F4D2
:10549000D5C0238534852A5031092930310508F4D7
:1054A000D5C0809104058A3108F43FC080913C0446
:1054B00090913D048032934008F492CF80913E0455
:1054C00090913F04C697869780F580914004909113
:1054D0004104C697869748F5E7E3F4E083E090E05F
:1054E00040E050E0BA01A09104059C012F5F3F4FBE
:1054F000A217130609F00CF4D8C0238534852C506C
:1055000031092B30310508F0D0C02585368525526C
:1055100031092B31310508F4BBC0258536852C5067
:1055200031092A30310508F4BBC08091040582326C
:1055300038F180913E0490913F040697079700F55B
:10554000E7E3F4E082E090E040E050E0BA01DC0103
:105550001196209104052A171B0609F00CF4D1C0FE
:10556000218532852E5131092731310508F4B4C027
:10557000218532852C5031092B30310508F4BBC010
:10558000809104058D3008F4EDC03BA22AA21A8256
:10559000198249E753E0BE016F5F7F4FCE018296CB
:1055A0000E94D503892B09F0DDC049E753E0BE0115
:1055B0006F5F7F4FCE0182960E94D503019709F05D
:1055C000D1C049E753E0BE016F5F7F4FCE018296A5
:1055D0000E94D5038C01892B09F0C4C0812C912C29
:1055E0005401209104058AA19BA12817190609F0EE
:1055F0000CF4A9C049E753E0BE016F5F7F4FCE01B5
:1056000082960E94D5037C0149E753E0BE016F5F9B
:105610007F4FCE0182960E94D50321E0E216F1046D
:1056200009F088C0892B09F09DC0880C991CAA1C20
:10563000BB1C689480F80F5F1F4FD3CF440F551FDA
:10564000661F771F41600296349609CF440F551F9D
:10565000661F771FF8CF0197959587959093FD0268
:105660008093FC020C972CF41092FD021092FC0225
:1056700018CF4093F8025093F9026093FA027093A6
:10568000FB02E2E0F0E0F093F502E093F40214CDC7
:10569000440F551F661F771F41600296349623CF33
:1056A000440F551F661F771FF8CF01979595879573
:1056B0009093FD028093FC020C972CF41092FD0253
:1056C0001092FC0232CF4093F8025093F90260939B
:1056D000FA027093FB0290CE440F551F661F771F8E
:1056E00041602385348534962350310925303105B6
:1056F00038F402962CCF440F551F661F771FF1CF49
:10570000CD010197959587959093FD028093FC02BA
:1057100040972CF41092FD021092FC0231CF40937E
:10572000F8025093F9026093FA027093FB028AE048
:1057300090E064CEEF28B1F40197A1F4880C991C95
:10574000AA1CBB1C78CF1093FD020093FC02809230
:10575000F8029092F902A092FA02B092FB0283E062
:1057600090E04CCE80910003909101031816190629
:105770000CF082C0E091FE02F091FF023BA22AA24F
:105780008281938189974E9708F076C0A2E0B0E0BD
:10579000BBA3AAA3848195810B970A9708F06CC0DC
:1057A000E3E0F0E0FBA3EAA31A8219824CEB51E09C
:1057B000BE016F5F7F4FCE0182960E94D5038C01A0
:1057C000892B09F059C04CEB51E0BE016F5F7F4F50
:1057D000CE0182960E94D503019709F04DC0812C1D
:1057E000912C540120910003309101038AA19BA1C7
:1057F000821793070CF0E2C04CEB51E0BE016F5FE3
:105800007F4FCE0182960E94D5037C0103301105A3
:1058100039F14CEB51E0BE016F5F7F4FCE018296B4
:105820000E94D5036C010330110561F44CEB51E08B
:10583000BE016F5F7F4FCE0182960E94D503C816CE
:10584000D906D1F4E114F10409F4ABC0EA94EF28CD
:1058500099F4CD2889F4880C991CAA1CBB1CABC0F8
:105860004CEB51E0BE016F5F7F4FCE0182960E94EC
:10587000D503E816F90669F2E091FE02F091FF0205
:1058800082819381C697869778F5848195814B971D
:10589000459750F5DF0116967F0136ECE30EF11CBB
:1058A00020E030E040E050E060E070E080E090E038
:1058B0000D911C9111970950110908301105A0F4A0
:1058C00012960D911C911397015111090D3011057C
:1058D00008F483C012960D911C911397045011097E
:1058E0000530110508F49EC0828193818957910982
:1058F0008335910568F580910405893348F18481E9
:105900009581CA97899720F59F012A5F3F4FC12C47
:10591000D12C760143E050E0D9016D917C91119733
:105920006A5071096930710598F412966D917C91F5
:105930001397665171096131710508F477C01296A9
:105940006D917C91665071096730710508F49DC0B6
:1059500080910405823209F09DC0828193810A976B
:10596000099708F097C0A0910405B0E0A150B04895
:10597000AA0FBB1FAE0FBF1F8D919C910A9709976D
:1059800008F088C01092FD021092FC024092F802CA
:105990005092F9026092FA027092FB0288E090E065
:1059A0002DCDCA94CD2809F067CF880C991CAA1C6C
:1059B000BB1C689480F80F5F1F4F14CF1093FD023B
:1059C0000093FC028092F8029092F902A092FA02EF
:1059D000B092FB0284E090E011CD01E00E94893595
:1059E00021601496AE15BF0509F062CF2093F8022E
:1059F0003093F9024093FA025093FB0200E20E94B6
:105A0000A4352093F6023093F70287E090E090935C
:105A1000F5028093F40280E390E09093FD0280937E
:105A2000FC024ACB01E00E948935DBCFD701C601D9
:105A3000880F991FAA1FBB1F6C017D016894C0F8D5
:105A40004E5F5F4F2C5F3F4F4B33510509F064CFE2
:105A50009F012A583F4FD9012D913C912A5031097D
:105A60002930310508F074CF2CE130E03093FD028D
:105A70002093FC02C092F802D092F902E092FA025E
:105A8000F092FB028CE090E0B9CCCC0CDD1CEE1C5B
:105A9000FF1CD6CF82819381895791098335910567
:105AA00060F580910405813240F184819581CA9727
:105AB000899718F59F012A5F3F4FC12CD12C7601A1
:105AC00043E050E0D9016D917C9111976A507109C2
:105AD0006930710590F412966D917C91139766511F
