:100000000C9463000C94CC1E0C94A51E0C948B00D5
:100010000C948B000C948B000C948B000C94262178
:100020000C948B000C948B000C948B000C946A2025
:100030000C948B000C948B000C948B000C948B0014
:100040000C945B1E0C948B000C94191F0C94F31EE3
:100050000C948B000C948B000C948B000C948B00F4
:100060000C944B1F0C948B00000000002400270010
:100070002A0000000000250028002B0000000008D6
:10008000000201000003040700000000000000005F
:1000900000000000230026002900040404040404D6
:1000A0000404020202020202030303030303010227
:1000B00004081020408001020408102001020408F6
:1000C00010202B228D3211241FBECFEFD8E0DEBFCF
:1000D000CDBF12E0A0E0B1E0ECE3F5E702C005908F
:1000E0000D92A033B107D9F725E0A0E3B2E001C03B
:1000F0001D92A23AB207E1F710E0C2E6D0E004C0D8
:100100002197FE010E94AD35C136D107C9F70E9483
:1001100012230C94913A0C94000080910803909162
:100120000903891B990B0895CF92DF92EF92FF92FA
:10013000DC01A43F81E0B807D4F5A53BB10514F07C
:10014000A4EBB0E0409130052DE730E0241B3109ED
:1001500047FD3395220F331F220F331F6901330FE1
:10016000EE08FF084091310521E732E0241B3109F8
:1001700047FD3395220F331F220F331F032E000C30
:10018000440B550B2C193D094E095F09B7FF02C0FE
:10019000B0E0A0E00E94DF3324EB30E040E050E02C
:1001A0000E94B533C20ED31EE41EF51ED601E091A7
:1001B0002F05EC3080F5209130058DE790E0821B13
:1001C000910927FD9395880F991F880F991FA817EC
:1001D000B90784F02091310581E792E0821B9109F3
:1001E00027FD9395880F991F880F991FA817B907A6
:1001F0000CF4CD010297880F991F4FB7F8942E2F5A
:1002000030E0F901EE0FFF1FE20FF31FE65FFA4F38
:10021000928381834FBFFF90EF90DF90CF9008953E
:1002200020E0DC0160FF03C001C02D932D936250DC
:10023000E0F77040D0F70895833081F028F48130E2
:1002400099F08230A9F008958730A9F08830C9F07C
:100250008430B1F4809180008F7D03C08091800054
:100260008F7780938000089584B58F7784BD08953B
:1002700084B58F7DFBCF8091B0008F778093B000E5
:1002800008958091B0008F7DF9CF1F93CF93DF93B6
:10029000282F30E0F901E458FF4F8491F901E2552D
:1002A000FF4FD491F901E656FF4FC491CC23A9F03A
:1002B000162F81110E941C01EC2FF0E0EE0FFF1FA2
:1002C000EE58FF4FA591B4918FB7F894EC911111AE
:1002D00008C0D095DE23DC938FBFDF91CF911F91B3
:1002E0000895DE2BF8CFCF93DF9390E0FC01E25529
:1002F000FF4F249186569F4FFC0184918823C9F0BB
:1003000090E0880F991FFC01E859FF4FA591B49127
:10031000FC01EE58FF4FC591D49161110DC09FB7FC
:10032000F8948C91209582238C93888128232883AC
:100330009FBFDF91CF910895623051F49FB7F89439
:100340003C91822F809583238C93E8812E2BEFCFD5
:100350008FB7F894EC912E2B2C938FBFEACF0F938D
:100360001F93CF9390912F059C3008F05BC08B01B9
:10037000C82F61E00E94730180912F05282F30E083
:10038000F901EE0FFF1FE20FF31FE65FFA4FCF7385
:100390009081907CC92BC0831092300524EC39E009
:1003A000201B310B359527953595279520933105E1
:1003B0002CE0622F0E947935829FB001112430E039
:1003C00020E0AB01420F531FFA01EE0FFF1FE40FB5
:1003D000F51FE65FFA4F908196FD16C02F5F3F4FE5
:1003E0002C30310571F781110FC01092800082E02E
:1003F000809381001092850010928400B19A8091C0
:100400006F00826080936F00E0912F058E2F90E047
:10041000FC01EE0FFF1FE80FF91FE65FFA4F808126
:100420008064808380912F05CF911F910F91089553
:1004300064EC79E00C94AF011F93CF93DF93182FF6
:10044000EB0161E00E947301209739F460E0812F95
:10045000DF91CF911F910C944501CF3FD10511F44D
:1004600061E0F5CFE12FF0E0E458FF4FE491E33095
:1004700031F140F4E130B1F0E230E1F0C038D105C3
:100480007CF7E4CFE73029F1E83059F1E430B1F7F7
:1004900080918000806280938000D0938B00C09315
:1004A0008A0004C084B5806884BDC7BDDF91CF9148
:1004B0001F91089584B5806284BDC8BDF7CF809137
:1004C0008000806880938000D0938900C09388006A
:1004D000EDCF8091B00080688093B000C093B300EE
:1004E000E5CF8091B00080628093B000C093B400EB
:1004F000DDCF8E50806480937C0080917A00806490
:1005000080937A0080917A0086FDFCCF80917800FC
:100510009091790008953FB7F8948091DF0290910F
:10052000E002A091E102B091E20226B5A89B05C0CD
:100530002F3F19F00196A11DB11D3FBFBA2FA92F62
:10054000982F8827BC01CD01620F711D811D911D5F
:1005500042E0660F771F881F991F4A95D1F70895CB
:100560008F929F92AF92BF92CF92DF92EF92FF92C3
:100570004B015C010E948B026B017C010E948B028B
:100580006C197D098E099F09683E734081059105AC
:10059000A8F321E0821A9108A108B10888EEC80EDC
:1005A00083E0D81EE11CF11C81149104A104B10464
:1005B00029F7FF90EF90DF90CF90BF90AF909F9082
:1005C0008F9008952FB7F8946091DB027091DC0250
:1005D0008091DD029091DE022FBF0895CF92DF92CD
:1005E000EF92FF920F931F930E94E2020091820309
:1005F0001091830320918403309185036B017C016A
:10060000C01AD10AE20AF30AA701960121153105A1
:100610004105510521F421E030E040E050E0E09157
:100620008003F091810388EE93E0E89FB001E99F99
:10063000700DF89F700D1124072E000C880B990B7C
:100640000E941E34309331042093300410928103B1
:10065000109280030E94E2026093820370938303EE
:1006600080938403909385031F910F91FF90EF90E7
:10067000DF90CF900895CF92DF92EF92FF92CF93C9
:10068000DF93EC01072E000C880B990B0E94983227
:100690006B017C0120E030E040E45FE30E94F73230
:1006A00020E030E048E452E40E94BC340E942E3541
:1006B000C617D707D4F020E030E040EA5FE3C70177
:1006C000B6010E94F73220E030E048E452E40E9494
:1006D000BC3420E030E040E85FE30E9450340E94E8
:1006E0002E3521E06C177D070CF420E0822F90E07E
:1006F000DF91CF91FF90EF90DF90CF9008958F9290
:100700009F92AF92BF92CF92DF92EF92FF920F93A0
:100710001F93CF93DF93FC0120813181E09101038E
:10072000F091020301E010E02E173F070CF043C0E8
:10073000D901AA0FBB1FE091FF02F0910003EA0F5D
:10074000FB1FA080B18089010095109501701127D1
:1007500020FD23C02CE93FEFEA016B017C01490138
:10076000840E951EB401C5010E943B03892BC1F480
:100770008C0E9D1EB401C5010E943B03892B49F5D7
:10078000BE01680D791DC5010E943B0323E030E0E6
:10079000892B41F40FEF1FEF0EC024E630E0DCCFD1
:1007A00021E030E0F6018081918101968217930764
:1007B0009CF491838083C801DF91CF911F910F91A9
:1007C000FF90EF90DF90CF90BF90AF909F908F9071
:1007D000089522E030E0E6CF11821082F701808197
:1007E00091810196E6CF80E991E0089508950895FA
:1007F0000895AF92BF92CF92DF92EF92FF920F9344
:100800001F93CF93DF936C017B018B01040F151FA6
:10081000EB015E01AE18BF08C017D10759F069910E
:10082000D601ED91FC910190F081E02DC601099572
:10083000892B79F7C501DF91CF911F910F91FF901F
:10084000EF90DF90CF90BF90AF900895FC0144816E
:1008500055816081718186E893E00C94F903FC0175
:10086000538D448D252F30E0842F90E0821B930B15
:10087000541710F0CF96089501970895FC01918DBB
:10088000828D981761F0A28DAE0FBF2FB11D5D96BE
:100890008C91928D9F5F9F73928F90E008958FEF60
:1008A0009FEF0895FC01918D828D981731F0828D14
:1008B000E80FF11D858D90E008958FEF9FEF08956B
:1008C000FC01918D228D892F90E0805C9F4F821BCF
:1008D00091098F739927089586E893E00E94600438
:1008E00021E0892B09F420E0822F089580E090E038
:1008F000892B29F00E946C0481110C94000008954A
:10090000FC01A48DA80FB92FB11DA35ABF4F2C9184
:10091000848D90E001968F739927848FA689B7897B
:100920002C93A089B1898C91837080648C93938D72
:10093000848D981306C00288F389E02D80818F7D15
:1009400080830895EF92FF920F931F93CF93DF93CD
:10095000EC0181E0888F9B8D8C8D98131AC0E889FB
:10096000F989808185FF15C09FB7F894EE89FF89CA
:100970006083E889F98980818370806480839FBF68
:1009800081E090E0DF91CF911F910F91FF90EF9068
:100990000895F62E0B8D10E00F5F1F4F0F73112778
:1009A000E02E8C8D8E110CC00FB607FCFACFE889B3
:1009B000F989808185FFF5CFCE010E948004F1CFB7
:1009C000EB8DEC0FFD2FF11DE35AFF4FF0829FB727
:1009D000F8940B8FEA89FB8980818062CFCFCF9317
:1009E000DF93EC01888D8823B9F0AA89BB89E88957
:1009F000F9898C9185FD03C0808186FD0DC00FB6FD
:100A000007FCF7CF8C9185FFF2CF808185FFEDCF7A
:100A1000CE010E948004E9CFDF91CF91089520910B
:100A20006602260F3327331F21323105ECF4209163
:100A30005003FC0190E080E0243069F082E00895EA
:100A4000A09166022191AC014A5B5D4FA40FB52FC6
:100A5000B11D2C930196861798F380916602680F5A
:100A60006093660280E0089581E00895109250033B
:100A700081E080934F0310922A0361E082E10E949B
:100A8000450161E083E10E944501E9EBF0E08081EE
:100A90008E7F808380818D7F808388E48093B800FF
:100AA00085E48093BC000895CF93DF9391E0909309
:100AB00045028823B9F0C091B800D091BA00809166
:100AC000BC008A7B8093BC0060E082E10E9445010B
:100AD00060E083E10E9445010E943605D093BA0090
:100AE000C093B800DF91CF9108958F929F92AF92FB
:100AF000BF92CF92DF92EF92FF920F931F93CF930B
:100B0000DF93D0917903D13208F0D7C0182FC0916C
:100B100078030E948B026B017C018091500381114C
:100B20006BC082E08093500310934F038FEF80934C
:100B30004E0310924D03D0934C03A8E5B3E0ECE2D2
:100B4000F3E080E0D81391C010922B0380912B0327
:100B5000CC0FC82BC0932B0380912A03813009F05E
:100B600088C010922A030E948B026B017C01809145
:100B70002B038093BB008091520390915303A0916B
:100B80005403B0915503892B8A2B8B2BA1F00E9423
:100B90008B02009152031091530320915403309122
:100BA00055036C197D098E099F0906171707280739
:100BB000390708F442C08091BC0083FDD8CF85EC92
:100BC0008093BC000E948B026B017C0180915003DA
:100BD000823009F450C080914E038F3F09F46FC0FA
:100BE00080914E03803209F46CC080914E038033B3
:100BF00009F469C084E026C08091520390915303A8
:100C0000A0915403B0915503892B8A2B8B2B09F4A7
:100C100084CF0E948B028090520390905303A09047
:100C20005403B09055036C197D098E099F098616EF
:100C30009706A806B90608F070CF809151030E946C
:100C4000540585E0109257031092790310925603D1
:100C5000DF91CF911F910F91FF90EF90DF90CF9098
:100C6000BF90AF909F908F9008959D9191938F5FCB
:100C700069CF85EEA5CF8091520390915303A09147
:100C80005403B0915503892B8A2B8B2B09F49ECFEB
:100C90000E948B0200915203109153032091540340
:100CA000309155036C197D098E099F0906171707A6
:100CB0002807390708F08ACFC0CF81E0C3CF80E092
:100CC000C1CF82E0BFCF83E0BDCF0895E09109039B
:100CD00080910803E81730F4F0E0E65FFC4F808174
:100CE00090E008958FEF9FEF089590910903809110
:100CF00008032FEF3FEF981748F4E92FF0E0E65F85
:100D0000FC4F208130E09F5F90930903C901089553
:100D1000CF92DF92EF92FF920F931F93CF93DF93C7
:100D20007C01CB018A0120915603222389F0EB013B
:100D30006B01C40ED51ECC15DD0569F06991D70194
:100D4000ED91FC910190F081E02DC7010995F3CF61
:100D5000642F0E940F05C801DF91CF911F910F9161
:100D6000FF90EF90DF90CF900895CF93DF931F9285
:100D7000CDB7DEB76983209156032223F9F0209185
:100D80007903203258F021E030E0FC0133832283E4
:100D900090E080E00F90DF91CF910895809157030C
:100DA000E82FF0E0E85AFC4F998190838F5F8093A1
:100DB00057038093790381E090E0ECCF61E0CE01AE
:100DC00001960E940F05F7CFCF93C62F91E0909325
:100DD00056039BE690937803109257031092790381
:100DE000682F83E294E00E94B5066C2F83E294E0C2
:100DF0000E94B50681E00E94750591E0811190E0A6
:100E0000892FCF91089590E080E008950F931F936C
:100E1000CF93DF93209143022F5F322F37703093AF
:100E2000430220FF2BC020E831FD2064347009F01C
:100E30002062205FFC01EC01239600E011E0648554
:100E4000662329F070E0C8010E9499356F5F6187C1
:100E5000322F369F030E30E0311D1124311110C0A6
:100E60001682662311F0615061873196EC17FD07F9
:100E700031F7DF91CF911F910F91089520E0D4CFEA
:100E800031503683EECF4F925F926F927F928F9266
:100E9000AF92BF92CF92DF92EF920F931F93CF93B7
:100EA000DF933C01EB010E948B02F301278530891F
:100EB000621B730B6A307105B0F3F894E881F98115
:100EC0007BB170616BB16F7E6BB9CA848F812C2D41
:100ED000281B822F2F83BF844A805B801D850C8551
:100EE000DE841F5F0F5FD3949E813885A984EB84D5
:100EF0004181D20120E0C32F522F322F318144276C
:100F000088943111380F08F43FEF8195889410FDD3
:100F1000430F4795889411FD430F4795889412FD20
:100F2000430F4795889413FD430F4795889414FD0C
:100F3000430F4795889415FD430F4795889416FDF8
:100F4000430F4795889417FD430F47958894232FA7
:100F50001111242F8C0D422F002C7BB900C047FFAC
:100F60006BB930812227889400C000C0002C6BB977
:100F70003111390F00C0002C7BB900C046FF6BB99E
:100F800008F43FEF9195889400C000C0002C6BB925
:100F900000FD230F00C0002C7BB900C045FF6BB9DA
:100FA0002795889401FD230F00C000C0002C6BB969
:100FB0002795889400C0002C7BB900C044FF6BB912
:100FC00002FD230F2795889400C000C0002C6BB948
:100FD00003FD230F00C0002C7BB900C043FF6BB999
:100FE0002795889404FD230F00C000C0002C6BB926
:100FF0002795889400C0002C7BB900C042FF6BB9D4
:1010000005FD230F2795889400C000C0002C6BB904
:1010100006FD230F00C0002C7BB900C041FF6BB957
:101020002795889407FD230F00C000C0002C6BB9E2
:101030002795889400C0002C7BB900C040FF6BB995
:10104000432F0111422F9A0D00C000C0002C6BB934
:1010500000C000C0002C7BB900C047FF6BB93281D3
:101060002227889400C000C0002C6BB931113C0FBE
:1010700000C0002C7BB900C046FF6BB908F43FEFFD
:10108000EB0DF11D00C000C0002C6BB9D0FC230F8C
:1010900000C0002C7BB900C045FF6BB92795889430
:1010A000D1FC230F00C000C0002C6BB92795889499
:1010B00000C0002C7BB900C044FF6BB9D2FC230FE9
:1010C0002795889400C000C0002C6BB9D3FC230F77
:1010D00000C0002C7BB900C043FF6BB927958894F2
:1010E000D4FC230F00C000C0002C6BB92795889456
:1010F00000C0002C7BB900C042FF6BB9D5FC230FA8
:101100002795889400C000C0002C6BB9D6FC230F33
:1011100000C0002C7BB900C041FF6BB927958894B3
:10112000D7FC230F00C000C0002C6BB92795889412
:1011300000C0002C7BB900C040FF6BB9432FD11019
:10114000422FC19500C000C0002C6BB9CE0D00C06D
:1011500000C07BB900C047FF6BB93181222788945A
:1011600000C000C0002C6BB93111380F00C0002C3A
:101170007BB900C046FF6BB908F43FEF81958894B6
:1011800000C000C0002C6BB910FD230F00C0002C64
:101190007BB900C045FF6BB92795889411FD230FDB
:1011A00000C000C0002C6BB92795889400C0002CAB
:1011B0007BB900C044FF6BB912FD230F27958894BB
:1011C00000C000C0002C6BB913FD230F00C0002C21
:1011D0007BB900C043FF6BB92795889414FD230F9A
:1011E00000C000C0002C6BB92795889400C0002C6B
:1011F0007BB900C042FF6BB915FD230F279588947A
:1012000000C000C0002C6BB916FD230F00C0002CDD
:101210007BB900C041FF6BB92795889417FD230F58
:1012200000C000C0002C6BB92795889400C0002C2A
:101230007BB900C040FF6BB9432F1111422F8C0DB9
:1012400000C000C0002C6BB9119709F086CE20EECB
:1012500031E0D2010E94B335DC01CB01F4E0B69558
:10126000A79597958795FA95D1F730E020E0B901D9
:10127000EAE94E9E040C611D5E9E600D711D1124F5
:10128000650D711D860F971FA11DB11D893E43E09D
:101290009407A105B10508F434C0885E9340A10904
:1012A000B10942E0B695A795979587954A95D1F7EC
:1012B00047E0849F080E211D949F200D311D1124AD
:1012C000290F311D6091420270E0860F971F820F37
:1012D000931F4091DB025091DC026091DD0270911E
:1012E000DE02292F3327420F531F611D711D4093CA
:1012F000DB025093DC026093DD027093DE02809388
:10130000420278940E948B02F301708B6787DF9111
:10131000CF911F910F91EF90DF90CF90BF90AF9042
:101320008F907F906F905F904F900895549A08959A
:10133000EF92FF920F931F93CF93DF93CDB7DEB75A
:1013400062970FB6F894DEBF0FBECDBF7C01DC0103
:101350001C968C917A8369835C834B835E834D8377
:101360000D871E872F87813001F5CE0101960E94DF
:10137000060783E0888B1A8A198AD701ED91FC91C0
:101380000484F585E02DBE016F5F7F4FC70109958D
:1013900062960FB6F894DEBF0FBECDBFDF91CF913E
:1013A0001F910F91FF90EF9008951C861B861A865F
:1013B000198618861F82DDCFEF92FF920F931F933D
:1013C000CF93DF93CDB7DEB762970FB6F894DEBF49
:1013D0000FBECDBF7C01DC011C968C917A836983A2
:1013E0005C834B835E834D830D871E872F878130FF
:1013F000F9F4CE0101960E940607188A1A8A198A02
:10140000D701ED91FC910484F585E02DBE016F5F5D
:101410007F4FC701099562960FB6F894DEBF0FBEE5
:10142000CDBFDF91CF911F910F91FF90EF90089565
:101430001C861B861A86198618861F82DECF0F939C
:101440001F93CF930E94E20200913E0210913F024F
:101450002091400230914102601B710B820B930B73
:10146000653F714081059105B8F0C0913D02CF5FA5
:10147000C0933D020E94E20260933E0270933F02DD
:101480008093400290934102C53010F010923D02CB
:1014900080913D028093AC02CF911F910F910895EE
:1014A0008F929F92AF92BF92CF92DF92EF92FF9274
:1014B000A895C12CD12C76014C01B12CA12CC814BB
:1014C000D904EA04FB0460F461E070E080E090E09D
:1014D0000E94B0028FEFC81AD80AE80AF80AEFCFC4
:1014E000FF90EF90DF90CF90BF90AF909F908F9044
:1014F00008951F93CF93DF93182FEB018D7F8130D9
:10150000E1F46231710510F0C1E1D0E0209711F4EF
:10151000C1E0D0E08AE090E00E9418028AE0282F23
:101520002C9FC0012D9F900D11240E94940084EFE8
:1015300091E00E94500AC093070312501230E8F461
:10154000CC30D10510F0CBE0D0E0C330D10510F4A1
:10155000C3E0D0E08BE090E00E9418028AE0282FE0
:101560002C9FC0012D9F900D11240E94940084EFA8
:1015700091E00E94500AC0930603E0912F058E2F40
:1015800090E0FC01EE0FFF1FE80FF91FE65FFA4F36
:1015900080818F7B8083DF91CF911F910895CF93BE
:1015A000DF93EC018AE090E00E941802CE010E94D5
:1015B000940082EC91E00E94500AE0912F058E2F5A
:1015C00090E0FC01EE0FFF1FE80FF91FE65FFA4FF6
:1015D00080818F7B8083CE016AE070E00E94853538
:1015E00060930703DF91CF91089590E080E0089524
:1015F0004F925F926F927F928F929F92AF92BF9223
:10160000CF92DF92EF92FF920F931F93CF93DF93CE
:1016100000D01F92CDB7DEB76A0119821A821B82F1
:101620008823C9F18B01E1E0F0E0482E512C712CA8
:10163000612CD8012D918D01222349F17F01B1E068
:10164000EB1AF108D601AE0DBF1D8C908820F9F081
:1016500030E050E040E02F5F3F4F4F4F5F4FC301FE
:10166000B2010E9469359B01AC01912CB12CA12CD7
:10167000C501B4016F5F7F4F8F4F9F4F0E94693547
:10168000A1E0B0E0AC0FBD1FAE0DBF1D8C93319635
:10169000E430F10571F669817A818B810F900F90AA
:1016A0000F90DF91CF911F910F91FF90EF90DF90FE
:1016B000CF90BF90AF909F908F907F906F905F90F2
:1016C0004F900895CF92DF92EF92FF920F931F9366
:1016D000CF93DF93F82E8091320490913304A09140
:1016E0003404B0913504892B8A2B8B2BD9F00E94BE
:1016F0008B0200917C0310917D0320917E03309139
:101700007F03601B710B820B930B009132041091CD
:101710003304209134043091350460177107820737
:101720009307C8F20E948B0260937C0370937D0341
:1017300080937E0390937F03E0913A04F0913B0401
:10174000309759F040913604509137046091380435
:10175000709139048F2D0995F82EC0917A03D0919C
:101760007B03209721F1EC84809130049091310427
:101770008436910508F41C86E881F981C280D38003
:10178000AE01475F5F4FBE016A5F7F4F8F2D0E94A2
:10179000F80A8B01282F4D855E856A817B81CE01F9
:1017A000F6010995EC860C80DD81C02DDACF8091A1
:1017B0008003909181039C012F5F3F4F3093810301
:1017C00020938003499754F0DF91CF911F910F919F
:1017D000FF90EF90DF90CF900C94EE02DF91CF91CD
:1017E0001F910F91FF90EF90DF90CF90089540935D
:1017F0000303509304036093050380912F040E9418
:10180000620B90E080E00C94500AAF92BF92CF92AE
:10181000DF92EF92FF920F931F93CF93DF936C01B0
:10182000F62E8091320490913304A0913404B0914B
:101830003504892B8A2B8B2BD9F00E948B020091C7
:101840007C0310917D0320917E0330917F03601B08
:10185000710B820B930B0091320410913304209191
:101860003404309135046017710782079307C8F27A
:101870000E948B0260937C0370937D0380937E03B0
:1018800090937F03E0913A04F0913B04309759F034
:1018900040913604509137046091380470913904B6
:1018A0008F2D0995F82EC0917A03D0917B03209754
:1018B00019F1EC84809130049091310484369105C3
:1018C00008F41C86E881F981A080B180AE01475FF1
:1018D0005F4FBE016A5F7F4F8F2D0E94F80A4D85D2
:1018E0005E858B01282FB601CE01F5010995EC86A6
:1018F0000C80DD81C02DDBCF80918003909181032E
:101900009C012F5F3F4F30938103209380034997C1
:1019100064F0DF91CF911F910F91FF90EF90DF90D6
:10192000CF90BF90AF900C94EE02DF91CF911F91BA
:101930000F91FF90EF90DF90CF90BF90AF90089500
:101940000F931F93CF93DF9300D01F92CDB7DEB7D5
:1019500019821A821B8260E0CE0101960E94050C5A
:1019600000917A0310917B030115110591F0F801A4
:1019700082819381009749F025853685B901660FEC
:10198000771F620F731F0E941001F80104811581F7
:10199000EBCF0F900F900F90DF91CF911F910F9190
:1019A0000895FC018585968508950F931F93CF9325
:1019B000DF9300D01F92CDB7DEB7AB0119821A8238
:1019C0001B82DC01ED91FC910190F081E02D00E0A3
:1019D00010E020E0BE016F5F7F4F09950F900F90E0
:1019E0000F90DF91CF911F910F9108954F925F92C9
:1019F0006F927F928F929F92AF92BF92DF92EF92FF
:101A0000FF920F931F93CF93DF938C01EB0188819B
:101A10008B32D1F18D32C9F52196EE24E394888181
:101A200090ED980F9A3010F08E3289F560E070E0FA
:101A3000CB01FE012191A0ED8A2E820E39E03815EE
:101A400008F440C06A3929E97207820729E1920740
:101A500008F04DC0AAE0B0E09B01AC010E94D43375
:101A6000912CB12CA12C2401350140945094609408
:101A700070944616570668067906C8F1680D791DF8
:101A80008A1D9B1DEF01D5CF2196E12CC8CFF8010F
:101A9000108211821282138214821582168217829A
:101AA0001086C801DF91CF911F910F91FF90EF90A9
:101AB000DF90BF90AF909F908F907F906F905F90DE
:101AC0004F900895211113C0F801608371838283C0
:101AD00093830E949632F80164837583868397838B
:101AE00087E0E11001C086E0F8018087DACFF12CB1
:101AF000EAE08E2E912CA12CB12C61157105F0E835
:101B00008F07910540F0A50194010E941E34CA017F
:101B1000B901F394F2CFFE01299130ED320F3A3042
:101B200010F4F394F8CF2E32F1F4EF012196FE0178
:101B30002196208150EDD52ED20E29E02D1598F05A
:101B40006C3C3CEC73073CE08307910580F7AAE00E
:101B5000B0E09B01AC010E94D4336D0D711D811D5D
:101B6000911DFA94E4CF20812F7DD0E0C0E0253490
:101B700009F04FC021812D32A9F53296BB24B394D0
:101B8000DF01D0E0C0E02F2D0F2C000C330B4AE01A
:101B9000A42EFD01DD9040ED4D0D4A30A8F5AC9E20
:101BA000A001AD9E500D1124CD2DDD0CDD0BE09775
:101BB000C40FD51FAE01420F531F473251054CF3DE
:101BC000BB20B9F080E090E0A0E0B0E8E11003C0F5
:101BD00080E090E0DC01F80184839583A683B783DD
:101BE00088E083CF2B3219F03196B12CC9CF3296D1
:101BF000FCCF80E090E0A0E8BFEFE110ECCF80E008
:101C000090E0A0E8BFE7E7CFBB2019F0D195C195E0
:101C1000D109208121113BCFCF0DD11DF7FCDA95E1
:101C20000E9496321C161D06E4F4F12CC0FF0CC075
:101C300024E0F29EF0011124ED5BFE4F2081318102
:101C4000428153810E94F732D595C795F39420972E
:101C500069F7E1109058F801648375838683978350
:101C6000BFCFD195C195D109F12C209791F3C0FF39
:101C70000CC024E0F29EF0011124E55DFE4F2081AE
:101C80003181428153810E94F732D595C795F394F3
:101C9000ECCF80339CF08A3324F08F3524F08B37DF
:101CA00024F481E0089581344CF08B35D4F393ED26
:101CB000980F81E09230B0F380E008958B32B9F74D
:101CC000F0CFFC018285811114C0A281B38184818F
:101CD00095812FEF3FEFA817B90730F4CD0101969A
:101CE000938382832C9130E037FD20E0218781E0CF
:101CF0008287818508951F93CF93DF93EC01CE01F6
:101D00000E94610E8B303CF489305CF48823E9F04A
:101D100090E080E01CC0803221F08F3221F08D30C5
:101D2000B9F71A86ECCF1A86CE010E94610E8A326C
:101D300029F08F32D1F082E090E009C01A8610E0DD
:101D4000CE010E94610E811106C081E090E0DF911A
:101D5000CF911F9108958F3211F41111E2CF11E04C
:101D60008A3209F010E01A86EBCF1A86CE010E9463
:101D7000610E882351F38A30C1F7C1CFCF92DF9231
:101D8000EF92FF92CF93DF93CDB7DEB729970FB6CF
:101D9000F894DEBF0FBECDBF009749F0FC018481EF
:101DA0008F77873040F4853068F48330E0F460E06A
:101DB00070E0CB010BC08830D1F7C080D180E280C9
:101DC000F38020C0608171818281938129960FB652
:101DD000F894DEBF0FBECDBFDF91CF91FF90EF90A3
:101DE000DF90CF90089560817181CE0101960E94AD
:101DF000F60C89858630F1F08830C9F6CD80DE801A
:101E0000EF80F88420E030E0A901C701B6010E940C
:101E1000643587FDCCCF20E030E040E85FE4C701C7
:101E2000B6010E949132181614F2C701B6010E9441
:101E30003535CCCF69817A818B819C81C7CFCF9298
:101E4000DF92EF92FF92CF93DF93CDB7DEB7299762
:101E50000FB6F894DEBF0FBECDBF009749F0FC016E
:101E600084818F77873030F4853058F4833000F5E3
:101E700080E011C08830E1F7C080D180E280F3803B
:101E800026C080819181A281B3818F3F9105A105F8
:101E9000B10509F068F729960FB6F894DEBF0FBEBA
:101EA000CDBFDF91CF91FF90EF90DF90CF9008955D
:101EB00060817181CE0101960E94F60C8985863081
:101EC00001F18830A9F6CD80DE80EF80F88420E033
:101ED00030E0A901C701B6010E94643587FDC8CF73
:101EE00020E030E04FE753E4C701B6010E94913291
:101EF00018160CF4BDCFC701B6010E943535862FE8
:101F0000CACF89819A81AB81BC81BFCF8EE00E940C
:101F10007902209182053091830528173907C0F492
:101F20008FE00E9479022091820530918305281765
:101F3000390770F480E10E94790220918205309186
:101F400083052817390720F41092710580E0089561
:101F500081E0809371050895FC0180819181892B36
:101F600021F460E070E0CB0108956AEB7FE090E03F
:101F700080E008950895FC0184819581009799F08F
:101F800022813381468157812417350718F0158245
:101F900014820895A9014F5F5F4F53834283820FDC
:101FA000931FFC0160830895DF92EF92FF920F93DD
:101FB0001F93CF93DF93CDB7DEB728970FB6F89472
:101FC000DEBF0FBECDBF8C017B01DC011696ED910B
:101FD000FC91228133818481958193838283FA836A
:101FE000E9831C821B823E832D83821B930B98877F
:101FF0008F83C8010E94610ED82EF8011286C80195
:102000000E94610ED8011A961C92D816A9F181116E
:1020100010C081E090E028960FB6F894DEBF0FBEA6
:10202000CDBFDF91CF911F910F91FF90EF90DF9087
:1020300008958C35D9F4C8010E94610E882349F3B4
:10204000853719F484E090E0E6CFE5EAF1E090818D
:10205000992351F0891306C08181811105C082E066
:1020600090E0D9CF3296F3CFF8011286682FCE01D7
:1020700001960E94BB0FC3CF60E0CE0101960E9483
:10208000BB0F8D819E81892B79F0E981FA818B814B
:102090009C812F813885AC01421B530B8281938137
:1020A000840F951F938382838D819E81D7018D93A9
:1020B0009C93892B19F483E090E0ADCF90E080E011
:1020C000AACFCF93DF93DC01EB01EC81FD818A8104
:1020D0009B810896E817F90730F4F0E0E0E0CF01C3
:1020E000DF91CF9108953897FD83EC833097A9F362
:1020F0001296CD91DC911397209791F0CF018C1B14
:102100009D0B23E0959587952A95E1F78D8313968E
:10211000FC93EE9312971582148217821682DFCFFA
:102120001196FC93EE93F3CF8F929F92AF92BF9252
:10213000CF92DF92EF92FF920F931F93CF93DF9393
:10214000CDB7DEB7CD54D1090FB6F894DEBF0FBEC0
:10215000CDBF8C016B010E947B0E2E969FAF8EAF80
:102160002E97CE01845B9F4F0E94AC0F672B09F026
:102170008BC280FD89C2C8010E94610E873209F4BA
:10218000EDC11CF5823209F4E9C1C8010E94610E5B
:10219000F82EAE014F5F5F4F4A01E12C5A018F2D9F
:1021A0000E94490E882309F4F6C15FE3E51609F49D
:1021B000F2C1D8011A961C92E394F401F1924F01F6
:1021C000C8010E94610EF82EEACF8B3509F468C071
:1021D0008B37D9F6D60114968C911497807880624B
:1021E00014968C93149711961C921E9213961C921F
:1021F0001E921297F8018085882309F4ACC1C801AA
:102200000E94610E8B3709F065C0D8011A961C92A6
:10221000C8010E947B0E2C969FAF8EAF2C97CE01EB
:10222000865B9F4F0E94AC0F672B09F017C180FDA2
:1022300015C1C8010E94610E8D3709F464C0D80130
:102240006D917C91C6010E9461105C01892B09F49B
:102250007EC1C8010E94610E873209F496C08232A5
:1022600009F493C0D8011696ED91FC912281338137
:102270008481958193838283FA83E9831C821B8204
:102280003E832D83821B930B98878F83C8010E9406
:10229000610EF82E8111FDC0EE24E394F12C7CC078
:1022A000D60114968C9114978078806414968C9340
:1022B000149711961C921E9213961C921E921297BE
:1022C000F8018085882309F446C1C8010E94610E87
:1022D0008B3519F082E0E82E3CC1D8011A961C9289
:1022E000C8010E947B0E9A838983CE0101960E94C9
:1022F000AC0F672B09F046C080FD44C0C8010E94A6
:10230000610E8D3591F4F8011286E12C22C180FD19
:1023100039C0C8010E94610E8D35A9F3C8010E9421
:10232000610E8C32B9F6F8011286D8016D917C915C
:10233000C6010E946110BC01892B09F408C1F80193
:10234000908591509087C8010E9494109A83898348
:10235000D80118968C9118978F5F18968C93CE01A0
:1023600001960E94AC0F672B69F480FD0BC0C80179
:102370000E947B0E9A838983CE0101960E94AC0F46
:10238000672B29F2E980FA806FC0BE016F5B7F4F37
:10239000C8010E94D40F7C012B96EFAE2B972C9690
:1023A000FFAE2C97CE01865B9F4F0E94AC0F672B30
:1023B00009F05AC080FD58C023962EAD3FAD23973B
:1023C000D50114968C911497806814968C93149769
:1023D00017963C932E931697C8010E947B0E2C965D
:1023E0009FAF8EAF2C97CE01865B9F4F0E94AC0FA4
:1023F000672BA1F580FD32C0C8010E94610E8A33AF
:1024000009F068CFF8011286808581508087B50178
:10241000C8010E9494102C969FAF8EAF2C97D801C4
:1024200018968C9118978F5F18968C93CE01865BC7
:102430009F4F0E94AC0F672B89F480FD0FC0C8012D
:102440000E947B0E2C969FAF8EAF2C97CE01865BA1
:102450009F4F0E94AC0F672B09F456C02B96EFAC30
:102460002B972C96FFAC2C97C701C35BDF4F0FB6A1
:10247000F894DEBF0FBECDBFDF91CF911F910F91BA
:10248000FF90EF90DF90CF90BF90AF909F908F9094
:1024900008950E94490E42E0E42E882309F4FECEFE
:1024A000F80112866F2DCE0101960E94BB0FC80164
:1024B0000E94610EF82E0E94490E8111F1CF60E05A
:1024C000CE0101960E94BB0F8D819E81892B79F0F0
:1024D000E981FA818B819C812F813885AC01421B77
:1024E000530B82819381840F951F938382838D8107
:1024F0009E8123969FAF8EAF2397E12C892B09F005
:10250000CDCE33E0E32ECACE80FDA8CFC8010E9415
:10251000610E8D3709F4F7CEC8010E94610E8C322E
:1025200009F0D8CED8011A961C92C8010E947B0EE1
:102530002C969FAF8EAF2C97CE01865B9F4F0E944B
:10254000AC0F672B09F08ACF80FF79CE87CF23E0CD
:10255000E22EF12C89CF95E0E92EFBCFBE016F5B17
:102560007F4FC8010E94D40F9A838983CE010196C0
:102570000E94AC0F672B09F005CF80FD03CF239697
:102580002EAD3FAD2397F6018481807884608483EB
:1025900031832083BACEF501EE0DF11D10828981C1
:1025A0008437B9F4D60114968C911497807885609D
:1025B00014968C9381E090E0A0E0B0E0F601808377
:1025C0009183A283B383F12CF4E0EF121CC080E06E
:1025D0001AC0863689F4D60114968C9114978078A7
:1025E000856014968C93F6011082118212821382F8
:1025F00081E0F12CF5E0E9CF8E3639F481E0F12C61
:1026000044E0E41621F3E82E2FCFB501CE018F5B15
:102610009F4F0E94F60C25964CAD5DAD6EAD7FAD23
:1026200025972A968FAD2A97873061F08830C1F0C0
:10263000863009F04FCED60114968C91149780788D
:10264000866006C0D60114968C91149780788760B6
:1026500014968C93F601408351836283738355CE25
:1026600029964CAD5DAD6EAD7FAD2997D601149620
:102670008C9114978078886014968C93F60140832F
:1026800051836283738341CE2D968FAD2D972E9605
:102690009FAD2E97EACE2F923F924F925F926F920C
:1026A0007F928F929F92AF92BF92CF92DF92EF92E2
:1026B000FF920F931F93CF93DF93CDB7DEB7299788
:1026C0000FB6F894DEBF0FBECDBFE82E162F5B838A
:1026D0004A8319010E94E2024B015C01FF24FA9433
:1026E000F10E1986198201E0C12ED12C910150E022
:1026F00040E02C833D834E835F83009356033BE68B
:102700003093780310925703109279036E2D83E271
:1027100094E00E94B50681E00E947505009356037F
:1027200010925703109279030E948B022B013C01F7
:1027300080915003811168C041E04F0D488700939C
:10274000500300934F035FEF50934E0310924D03DD
:10275000F0924C0300932B0380912B03866D8093A2
:102760002B0380912A03813009F091C010922A0333
:102770000E948B022B013C0180912B038093BB00B4
:102780008091520390915303A0915403B09155034B
:10279000892B8A2B8B2BA1F00E948B022091520354
:1027A00030915303409154035091550364197509B6
:1027B00086099709261737074807590708F445C0BF
:1027C0008091BC0083FDD8CF85EC8093BC000E9433
:1027D0008B022B013C0180915003813009F45BC0D6
:1027E00080914D03A8858A1718F4B0914D03B887DE
:1027F000ECE2F3E0AAE0B3E080E02885821751F133
:1028000091919D938F5FF9CF8091520390915303E3
:10281000A0915403B0915503892B8A2B8B2B09F47B
:1028200087CF0E948B022091520330915303409135
:1028300054035091550364197509860997092617A1
:1028400037074807590708F073CF809151030E945A
:102850005405188610920903388530930803809137
:1028600009034885481709F448C021143104A9F523
:1028700083E294E00E947506EA81FB815985E50FA9
:10288000F11D57FDFA9580835F5F5987E8CF95EE7C
:102890009093BC009CCF8091520390915303A091E0
:1028A0005403B0915503892B8A2B8B2B09F493CFBA
:1028B0000E948B02209152033091530340915403A4
:1028C000509155036419750986099709261737072A
:1028D0004807590708F07FCFB8CF0E94E202681975
:1028E00079098A099B092C813D814E815F8162179C
:1028F00073078407950708F4BBCF8981810FF11A0C
:1029000031E03983811708F4F8CE21143104C9F07D
:102910000E94E202AB01BC01481959096A097B090E
:10292000C101B0E0A0E0481759076A077B0748F0EB
:102930004985842F440F990B8C159D0514F45FEF86
:102940005987898529960FB6F894DEBF0FBECDBF93
:10295000DF91CF911F910F91FF90EF90DF90CF907B
:10296000BF90AF909F908F907F906F905F904F90AF
:102970003F902F900895CF93DF93CDB7DEB72E977A
:102980000FB6F894DEBF0FBECDBF28EE33E0AE0128
:102990004F5F5F4F62E08FE30E944B1389819A8102
:1029A0002E960FB6F894DEBF0FBECDBFDF91CF914C
:1029B0000895CF93DF93C9EED3E02197F9F00E94F9
:1029C000BB1490933D0580933C05092E000CAA0B87
:1029D000BB0B40915A0550915B0560915C0570916D
:1029E0005D05840F951FA61FB71F80935A0590930E
:1029F0005B05A0935C05B0935D05DFCF60915A0540
:102A000070915B0580915C0590915D0528EE33E047
:102A100040E050E00E94B53320935A0530935B05A7
:102A200040935C0550935D0580E0DF91CF91089560
:102A3000FF920F931F93CF93DF93D82F062FF42E7F
:102A4000C22F61E083E00E94450110E061E0D130D7
:102A500009F060E087E00E944501B80185E00E942E
:102A60001C02D0E081E061E0F81260E088E00E94A2
:102A70004501BE0186E0DF91CF911F910F91FF903C
:102A80000C941C022F923F924F925F926F927F9212
:102A90008F929F92AF92BF92CF92DF92EF92FF926E
:102AA0000F931F93CF93DF9300D000D000D01F92DD
:102AB000CDB7DEB71C01162F4D832F83B0900001D8
:102AC000B61609F491C020E041E060E081E00E9488
:102AD00018150E94E2026B017C0180914E059091D5
:102AE0004F05A0915005B0915105A7019601281BF3
:102AF000390B4A0B5B0BCA01B9010E94963220E0E8
:102B000030E04AE754E40E94BC346093520570936D
:102B100053058093540590935505C0924E05D0926D
:102B20004F05E0925005F09251050E94BB1490931E
:102B30003D0580933C05092E000CAA0BBB0B409170
:102B40005A0550915B0560915C0570915D056A01C5
:102B50007B01C81AD90AEA0AFB0AC701B6010E941A
:102B6000983220E030E040E05DE30E94F7322091AF
:102B700052053091530540915405509155050E94DE
:102B8000F7326B017C019F772DEC3CEC4CE45DE36C
:102B90000E94913218160CF0B2C020915605309167
:102BA00057054091580550915905C701B6010E943B
:102BB0005034609356057093570580935805909351
:102BC00059056093340270933502809336029093D6
:102BD00037020E94E20260933802709339028093B8
:102BE0003A0290933B0214C00E94E202C090380265
:102BF000D0903902E0903A02F0903B026C197D09C6
:102C00008E099F096B3071058105910508F05BCF36
:102C1000C0903402D0903502E0903602F090370236
:102C2000B11204C08091710581110AC01093000196
:102C3000C0923002D0923102E0923202F09233021E
:102C40002091300230913102409132025091330292
:102C500029833A834B835C833F81632F70E090E04C
:102C600080E00E9498322B013C014D81642F70E07E
:102C700090E080E00E9498324B015C0129813A810A
:102C80004B815C81C701B6010E944F34A3019201C0
:102C90000E94F732A50194010E9450340E942E3503
:102CA00010E0061717077CF17E836D836A3071058B
:102CB00024F4AAE0B0E0BE83AD83A7019601698148
:102CC0007A818B819C810E944F34A30192010E94E2
:102CD000F732A50194010E9450340E942E35061748
:102CE000170734F08B016A30710514F40AE010E024
:102CF000232861F02D8140E0602F80E00BC0C12CC3
:102D0000D12C76014ACF1E830D83D7CF202F41E0EF
:102D10006D8181E027960FB6F894DEBF0FBECDBF60
:102D2000DF91CF911F910F91FF90EF90DF90CF90A7
:102D3000BF90AF909F908F907F906F905F904F90DB
:102D40003F902F900C941815FC0101900020E9F79A
:102D50003197AF01481B590BBC0186E893E00C94F6
:102D6000F9038F929F92AF92BF920F931F93CF93CD
:102D7000DF93CDB7DEB7A1970FB6F894DEBF0FBED5
:102D8000CDBF19A2423008F44AE08E010F5D1F4FFB
:102D9000842E912CB12CA12CA50194010E941E34EB
:102DA000E62FB901CA01EA30F4F4E05DD801EE93F0
:102DB0008D01232B242B252B79F790E080E01097B1
:102DC00019F0CD010E94A416A1960FB6F894DEBFAB
:102DD0000FBECDBFDF91CF911F910F91BF90AF90EC
:102DE0009F908F900895E95CE1CF0F931F93CF934D
:102DF000DF93EC0160E08DE00E94450183E090E00C
:102E00000197F1F761E08DE00E94450183E290E0D7
:102E10000197F1F760E08DE00E944501EAEBF0E0F8
:102E20006491E6EAF0E0E491F0E0EE0FFF1FE05776
:102E3000FF4F8591949100E412E42FE030E0462F9B
:102E40000E94E621611571058105910529F06F5FEA
:102E50007F4F8F4F9F4F9F70CB016AE370E00E94BE
:102E600085356739710548F086E990E09983888354
:102E7000DF91CF911F910F91089579836883F8CFE7
:102E80000E94D2370F931F93CF93DF93EC01888179
:102E90009981009759F02A813B812617370730F036
:102EA00081E0DF91CF911F910F9108958B016F5FAA
:102EB0007F4F0E941537009759F0998388831B83B1
:102EC0000A832C813D81232B59F7FC011082E8CF26
:102ED00080E0E7CFEF92FF920F931F93CF93DF93A2
:102EE0006115710541F480E0DF91CF911F910F9141
:102EF000FF90EF90089541155105B1F07B01EC0171
:102F00000C811D81040F151FB8010E9442178823F0
:102F100051F3288139818C819D81B701820F931FE4
:102F20000E94E9371D830C8381E0DECFCF93DF93CE
:102F3000EC0188819981009711F00E948C361982EA
:102F400018821D821C821B821A82DF91CF91089504
:102F5000CF93DF93EC0140917B0550917C0560910C
:102F60007705709178050E946A17811103C0CE0120
:102F70000E949617CE01DF91CF9108950F931F9372
:102F8000CF93DF9300D0CDB7DEB78C0169831A826F
:102F900041E050E0BE016F5F7F4F0E946A178111D0
:102FA00003C0C8010E949617C8010F900F90DF91CF
:102FB000CF911F910F910895CF93DF93EC01FB0107
:102FC00001900020E9F73197AF01461B570B0E9493
:102FD0006A17811103C0CE010E949617CE01DF91BE
:102FE000CF910895EF92FF920F931F93CF93DF93AA
:102FF000EC017B018A01BA010E94421781110BC0CA
:10300000CE010E949617CE01DF91CF911F910F91B3
:10301000FF90EF9008951D830C83B70188819981FB
:103020000E94E937F0CFFB0101900020E9F73197CA
:10303000AF01461B570B0C94F217CF93DF9300D0D0
:10304000CDB7DEB7FC011182108213821282158285
:1030500014822BE729831A82BE016F5F7F4F0E9483
:1030600013180F900F90DF91CF910895FC0180818C
:103070009181009711F00C948C3608958FEE92E0B8
:103080000C943618EF92FF920F931F93CF93DF9318
:10309000CDB7DEB7C054D1090FB6F894DEBF0FBE6E
:1030A000CDBF7C01162F1F86188A198A1A8A1B8A9F
:1030B00081E08C8B80E090E0A0EEB0E48D8B9E8B65
:1030C000AF8BB88F04E1098F1B8E1A8E1D8E1C8E5C
:1030D0001F8E1E8E50E040E06FEA71E0CE014A96EE
:1030E0000E94F2178AEF88A38AA382E593E09CA34B
:1030F0008BA386EB93E09EA38DA321960FAF219720
:103100004091E5025091E602CA0102970FEF2AE0D2
:103110008A30910540F4FC01EF5DFE4F2081895E0D
:103120009E4FFC010081F9E0EF16F10408F074C035
:10313000F701E356F74E0C94AD35A618B718DB1817
:10314000E318E918EF18F518FD1805194130510575
:1031500019F4212F41E034C0412F60913C0290E0EE
:1031600080E00E94421581E080933C0209C041301A
:103170005105C1F4212F40E0612F80E00E94181515
:10318000CE014A960E943618C05CDF4F0FB6F89405
:10319000DEBF0FBECDBFDF91CF911F910F91FF908A
:1031A000EF900895412F60913C0281E090E00E94F1
:1031B000421582E0D9CF83E080933C02212F40E08A
:1031C000612F81E0DBCF84E080933C02212F41E03E
:1031D000D3CF85E080933C02212F2695BBCF86E09C
:1031E00080933C02212F2695C6CF87E080933C0236
:1031F000612F6695212F41E0E4CF88E080933C0267
:10320000612F6695212F40E0B8CF89E080933C0282
:1032100020E041E060E0D5CF8AE0A6CF85ED809345
:10322000BC008091520390915303A0915403B0913C
:1032300055030796A11DB11D23E0B695A795979557
:1032400087952A95D1F72091BC0024FD03C01092E8
:1032500050030895409152035091530360915403D9
:1032600070915503452B462B472B69F30097A10519
:10327000B10541F025E32A95F1F700000197A10976
:10328000B109E1CF809151030C9454050F931F9322
:10329000CF93DF93FC01248125FF1FC08B01C081E8
:1032A000D1812097D1F06E817F8160177107E1F0A5
:1032B0000115110541F06115710529F0C8010E9441
:1032C000E037882389F08D81882339F0F8E08F0278
:1032D000C0011124C80FD91FE4CF80E090E0DF9136
:1032E000CF911F910F910895CE01F9CFCF92DF9228
:1032F000EF92FF920F931F93CF93DF93EC01CA01DC
:1033000008960E9446198C01009709F463C0FC01DD
:1033100084818F77873009F447C0883091F08630F8
:1033200009F058C0208131812C173D070CF44FC0A3
:1033300091E080E0C217D3070CF090E0292F382FDE
:1033400026C0BE01DD0F880B990B0E9498329B01AD
:10335000AC01F80160817181828193810E944F34B8
:103360006B017C0120E030E0A9010E94913287FDD1
:103370002EC0D1E0C0E020E030E0A901C701B601D5
:103380000E94643518160CF0D0E02D2F3C2F81E000
:10339000232B09F080E0DF91CF911F910F91FF90D7
:1033A000EF90DF90CF90089560817181C60FD71F95
:1033B0002FEF3FEFD7FD07C091E080E0CD2B09F460
:1033C00090E0292F382F319521953109E0CF2FEF4B
:1033D0003FEFDDCF21E030E0DACF8F929F92AF92C6
:1033E000BF92CF92DF92EF92FF920F931F93CF93F2
:1033F000DF93CDB7DEB7C85ED1090FB6F894DEBF54
:103400000FBECDBFCE010E969A8389839C838B839A
:103410008E010A521F4F1E830D8318870F838D85DF
:1034200080788D872091F3023091F4028091EF0231
:103430009091F002009711F48FEA91E0AE014F5F96
:103440005F4F6A01F8015183408393838283820F27
:10345000931F95838483578346838AE080871286EF
:10346000BE01675F7F4FC8010E949410CF51DF4FAC
:1034700099838883C15ED040CE018F519F4F0E94B7
:10348000AC0F672BB1F480FD14C0F801818588234F
:1034900081F08D85982F907661F48F7783508230FC
:1034A00040F082E090E0CF51DF4F99838883C15E86
:1034B000D040CF51DF4F88819981C15ED040C95142
:1034C000DF4F99838883C75ED0406FEA71E08FEE4B
:1034D00092E00E941318CE0189519F4F0E94AC0FB9
:1034E000672B09F06BC080FD69C0CE0189519F4FE9
:1034F0000E94AC0F672B09F04DC07C01F1E0EF2278
:10350000FF2480FD47C069EC71E0CE0109960E945E
:103510004619FC01892B59F094819F77973008F068
:1035200056C0953008F05DC0933008F077C06BEC62
:1035300071E0CE0109960E944619FC01892B09F41D
:10354000A7C094819F779350923008F0A1C060810A
:1035500071816115710509F49BC087E795E00E94B0
:103560001318F5E1EF16F10409F432C20CF0BFC0F4
:1035700044E0E416F10409F498C10CF08EC082E036
:10358000E816F10409F441C10CF074C1EA94EF2883
:1035900009F407C1C851DF4F0FB6F894DEBF0FBE64
:1035A000CDBFDF91CF911F910F91FF90EF90DF90F2
:1035B000CF90BF90AF909F908F90089580EB91E057
:1035C0000E94A41686EC91E00E94A416E3CF9730E7
:1035D000A9F0983009F0ABCF80809180A280B380B1
:1035E0003CC080819181A281B381811520E892073E
:1035F000A105B10508F09BCF7C0199CF8081918115
:10360000A281B381813040E89407A105B10508F09B
:103610008ECFEE24FF24E81AF90A89CF60817181E8
:10362000C8010E94F60CF80180819181A281B381CA
:103630002085273031F0283061F0263009F077CF2F
:10364000D4CF8130F0E89F07A105B10508F06FCF16
:10365000E0CF84809580A680B78020E030E040E015
:1036600057ECC501B4010E94643587FD60CF20E0AE
:103670003EEF4FEF56E4C501B4010E949132181697
:103680000CF455CFC501B4010E942E357B014FCFFC
:1036900087E795E00E94961764CF27E0E216F104D1
:1036A00009F41EC148E0E416F10409F462C155E0D2
:1036B000E516F10409F06ECF8DE090E09093E602FC
:1036C0008093E5026DEC71E0CE0109960E944619E7
:1036D0000E941F0F8093840560ED71E0CE01099672
:1036E0000E9446190E941F0F809385057EC085E6C3
:1036F000E816F10409F42CC2ACF4F7E1EF16F1047A
:1037000009F418C20CF4C9C187E090E044E6E4165D
:10371000F10409F03FCF9093E6028093E50282EF37
:1037200091E052CF59E6E516F10409F436C244F5AA
:10373000E6E6EE16F10409F02DCF84E090E09093D8
:10374000E6028093E5026DEC71E0CE0109960E94DD
:1037500046190E941F0F80937E058150893008F022
:10376000A7C2E82FF0E0E954F44E0C94AD352F1EBB
:10377000341E3B1E3E1E411E441E471E4A1E4D1E49
:10378000FAE6EF16F10409F42DC22EE6E216F10472
:1037900009F000CF88E090E09093E6028093E50284
:1037A00024C089E090E09093E6028093E5026DECFE
:1037B00071E0CE0109960E9446190E941F0F809366
:1037C000860560ED71E0CE0109960E9446190E94BF
:1037D0001F0F8093880563ED71E0CE0109960E946A
:1037E00046190E941F0F80938705C8010E941D186B
:1037F000C8010E94A81766ED71E00E94DC170E94C4
:103800002604C8010E943618C5CE8AE090E0909345
:10381000E6028093E5026DEC71E0CE0109960E940C
:1038200046190E941F0F80938D0560ED71E0CE0157
:1038300009960E9446190E941F0F80938E056BED1A
:1038400071E0CE0109960E9446190E94BE0E609357
:103850008F057093900580939105909392050E9437
:10386000E2026093E7027093E8028093E90290938A
:10387000EA0290CE8BE090E09093E6028093E5021E
:103880006DEC71E0CE0109960E9446190E941F0F4F
:1038900080938D0560ED71E0CE0109960E94461976
:1038A0000E941F0F80938E05A0CF8CE090E0909334
:1038B000E6028093E5026DEC71E0CE0109960E946C
:1038C00046190E941F0F8093930560ED71E0CE01B1
:1038D00009960E9446190E941F0F8093940585CF78
:1038E0008EE090E09093E6028093E5026DEC71E04B
:1038F000CE0109960E9446190E941F0F80939505DC
:1039000060ED71E0CE0109960E9446190E941F0FDA
:103910008093960563ED71E0CE0109960E944619E9
:103920000E941F0F809397056DED71E0CE010996FF
:103930000E9446190E941F0F809398056BED71E05D
:10394000CE0109960E9446190E94BE0E6093990509
:1039500070939A0580939B0590939C050E94E202C8
:103960006093EB027093EC028093ED029093EE0271
:1039700011CE8FE090E09093E6028093E5026DEC2B
:1039800071E0CE0109960E9446190E941F0F809394
:10399000950560ED71E0CE0109960E9446190E94DE
:1039A0001F0F8093960563ED71E0CE0109960E948A
:1039B00046190E941F0F809397056DED71E0CE01AF
:1039C00009960E9446190E941F0F809398050DCFFB
:1039D0006DEC71E0CE0109960E9446190E941F0FFE
:1039E000F82E84E695E00E94F5164091760550E0A9
:1039F00070E060E08091640590916505B0E0A0E022
:103A000021E0481759076A077B070CF420E0209350
:103A10006D05E1E0FE120FC0481759076A077B07E2
:103A20000CF48DC0C8010E941D18C8010E94A8177F
:103A300060EE71E0E2CEF2E0FF12ACCD8091640561
:103A4000909165059F938F938FEE91E09F938F9355
:103A50001F930F930E94F037CE018F519F4F0E940A
:103A60001D18CE018F519F4F0E94A8176FE50E942D
:103A7000BE17B8010E94DC176DE70E94BE170E94B6
:103A80002604CE018F519F4F0E9436180F900F9041
:103A90000F900F900F900F907DCD6DEC71E0CE01E7
:103AA00009960E9446190E941F0F811135C080910E
:103AB0006605909167059F938F938FEE91E09F939A
:103AC0008F931F930F930E94F037CE018F519F4F1A
:103AD0000E941D18CE018F519F4F0E94A8176FE5BD
:103AE0000E94BE17B8010E94DC176DE70E94BE1746
:103AF0000E942604CE018F519F4F0E9436180F90CE
:103B00000F900F900F900F900F9086E090E09093A1
:103B1000E6028093E5023ECD813029F4809168056C
:103B200090916905C8CF823081F780916A059091A4
:103B30006B05C1CF80917105882309F473CFC8014B
:103B40000E941D18C8010E94A81767EE71E055CEAB
:103B5000A6016DEC71E081E090E00E947619882367
:103B600019F081E090E0D7CDA6016DEC71E082E024
:103B700090E00E947619882319F082E090E0CBCD86
:103B8000A6016DEC71E083E090E00E947619882335
:103B900009F4C5CD83E090E0BECDA6016DEC71E0E7
:103BA00081E090E00E947619882321F080919D05A4
:103BB0008A3F70F0A6016DEC71E082E090E00E9417
:103BC0007619811109C080919D0580932F04E2CC64
:103BD0008B5F80939D05F7CF80919D05882399F396
:103BE0008550F7CF6DEC71E0CE0109960E94461921
:103BF0000E941F0F9FEF980F953008F0CBCC8330B9
:103C000020F08530A0F0853011F1609106038130FD
:103C100061F461506C3008F06BE0633008F463E0ED
:103C200070E082E00E94790A7ACD6F5FF3CF6091F5
:103C30000703833051F46F5F623108F061E1611175
:103C400001C061E070E081E0EDCF6150F5CF69E047
:103C500070E082E00E94790A69E070E0F4CF10928F
:103C6000E4021092E30296CC81E090E09093E402AB
:103C70008093E3028FCC82E090E0F8CF83E090E085
:103C8000F5CF84E090E0F2CF85E090E0EFCF86E0E2
:103C900090E0ECCF87E090E0E9CF88E090E090936F
:103CA000E4028093E3021092E6021092E50272CCE5
:103CB00088E090E0DBCF1F920F920FB60F92112495
:103CC0002F933F938F939F93AF93BF938091DB028A
:103CD0009091DC02A091DD02B091DE023091DA0217
:103CE00023E0230F2D3758F50196A11DB11D209318
:103CF000DA028093DB029093DC02A093DD02B093A2
:103D0000DE028091DF029091E002A091E102B09189
:103D1000E2020196A11DB11D8093DF029093E002A3
:103D2000A093E102B093E202BF91AF919F918F9176
:103D30003F912F910F900FBE0F901F90189526E87E
:103D4000230F0296A11DB11DD2CF1F920F920FB665
:103D50000F9211242F933F934F935F936F937F9311
:103D60008F939F93AF93BF93EF93FF93E0910301E2
:103D7000F09104010995FF91EF91BF91AF919F914F
:103D80008F917F916F915F914F913F912F910F9004
:103D90000FBE0F901F9018951F920F920FB60F92A3
:103DA00011242F933F934F935F936F937F938F9340
:103DB0009F93AF93BF93EF93FF93E0910101F09135
:103DC00002010995FF91EF91BF91AF919F918F9162
:103DD0007F916F915F914F913F912F910F900FBE07
:103DE0000F901F9018951F920F920FB60F921124EB
:103DF0002F933F934F935F936F937F938F939F93F3
:103E0000AF93BF93EF93FF9386E893E00E94800403
:103E1000FF91EF91BF91AF919F918F917F916F91A2
:103E20005F914F913F912F910F900FBE0F901F9078
:103E300018951F920F920FB60F9211242F938F9304
:103E40009F93EF93FF93E0919603F0919703808106
:103E5000E0919C03F0919D0382FD1BC090818091B5
:103E60009F038F5F8F732091A003821741F0E09131
:103E70009F03F0E0EA57FC4F958F80939F03FF91DB
:103E8000EF919F918F912F910F900FBE0F901F90E8
:103E900018958081F4CF1F920F920FB60F921124C4
:103EA0002F933F934F935F936F937F938F939F9342
:103EB000AF93BF93EF93FF938091B900887F8036D3
:103EC00009F44AC0F0F5883209F4A7C018F580312A
:103ED00009F49BC0B8F4882309F4F9C0883009F4C8
:103EE00094C0FF91EF91BF91AF919F918F917F917E
:103EF0006F915F914F913F912F910F900FBE0F9057
:103F00001F901895883109F488C0803251F780934A
:103F10004E0314C0803409F49DC040F48033B9F3DB
:103F20008833F9F680934E0385ECB0C0803509F4F0
:103F300085C0883509F496C0883499F60E940E1918
:103F4000D0CF883909F48CC038F5883729F050F47F
:103F5000883611F0803729F683E080935003109261
:103F6000880257C0883809F47BC0803919F080383E
:103F700009F0B7CF80918802803208F071C0E091DB
:103F8000880281E08E0F809388028091BB00F0E070
:103F9000E859FD4F80833DC0803B39F0E0F4803A22
:103FA00009F479C0883A09F09CCF84E080935003EB
:103FB0001092670210926602E0918B02F0918C02DF
:103FC00009958091660281110FC081E0809366029D
:103FD0001092460209C0803C09F4A6CF883C09F43F
:103FE000A3CF883B09F07DCFE091670281E08E0F7F
:103FF00080936702F0E0EA5BFD4F80818093BB0015
:10400000909167028091660229C080912B03809372
:10401000BB0085EC8093BC0064CF90914D038091F0
:104020004C03981758F5E0914D0381E08E0F809373
:104030004D03F0E0E45DFC4F8081E9CFE0914D035A
:1040400081E08E0F80934D038091BB00F0E0E45D32
:10405000FC4F808390914D0380914C039817C8F2D8
:1040600085E8D8CFE0914D0381E08E0F80934D031A
:104070008091BB00F0E0E45DFC4F808380914F03B2
:1040800081115CCF81E080932A0384EA8093BC0095
:104090001092500326CF85EC8093BC001092500301
:1040A00080918802803230F4E0918802F0E0E85993
:1040B000FD4F10826091880270E0E0918902F091DA
:1040C0008A0288E692E00995109288020ACF10923F
:1040D0004E0334CF1F920F920FB60F9211242F93DD
:1040E0003F934F935F936F937F938F939F93AF9380
:1040F000BF93CF93DF93EF93FF9380914402C091DE
:104100002E05D0E087FF24C0109285001092840015
:10411000809144028F5F8093440280914402082E74
:10412000000C990B8C179D0724F4809144028C306D
:10413000C4F18091840090918500049680349C495C
:1041400008F47AC08091840090918500049676C02E
:1041500080914402082E000C990B8C179D07C4F621
:10416000E09144028E2FEE0F990BFC01EE0FFF1F22
:10417000E80FF91FE65FFA4F808186FFC9CFE09113
:1041800044028E2FEE0F990BFC01EE0FFF1FE80F7C
:10419000F91FE65FFA4F808160E08F730E9445014E
:1041A000B7CF2091840030918500E09144028E2F9A
:1041B000EE0F990BFC01EE0FFF1FE80FF91FE65FF2
:1041C000FA4F81819281820F931F9093890080938F
:1041D0008800E09144028E2FEE0F990BFC01EE0F48
:1041E000FF1FE80FF91FE65FFA4F808186FF11C0BD
:1041F000E09144028E2FEE0F990BFC01EE0FFF1F92
:10420000E80FF91FE65FFA4F808161E08F730E942B
:104210004501FF91EF91DF91CF91BF91AF919F91B8
:104220008F917F916F915F914F913F912F910F905F
:104230000FBE0F901F90189580E49CE99093890021
:10424000809388008FEF80934402E3CF1F920F92F8
:104250000FB60F9211242F933F934F935F936F9359
:104260007F938F939F93AF93BF93CF93DF93EF93FE
:10427000FF9320913C0430E0F901E458FF4F849112
:10428000F901E255FF4FD491F901E656FF4FC49171
:10429000CC2379F081110E941C01EC2FF0E0EE0F8D
:1042A000FF1FE057FF4FA591B491EC91ED2381E002
:1042B00009F480E020913F04309140042F5F3F4F8C
:1042C0003093400420933F0490910905943618F0F0
:1042D00095E090933D0490913D04933009F44CC0D7
:1042E000E0F4923011F190913E04992319F081117C
:1042F0006BC02D9AFF91EF91DF91CF91BF91AF915C
:104300009F918F917F916F915F914F913F912F91ED
:104310000F900FBE0F901F901895943009F448C06D
:10432000953009F78111DFCF09C08111DCCF2091D1
:104330003F04309140042436310528F410924004A3
:1043400010923F04D0CF10920905E091090591E049
:104350009E0F90930905F0E020913F0430914004B6
:10436000EE0FFF1FE45CFB4F368325831092400461
:1043700010923F0493E019C0813009F0B4CFE0916E
:10438000090591E09E0F90930905F0E020913F040C
:1043900030914004EE0FFF1FE45CFB4F3683258312
:1043A0001092400410923F0494E090933D049BCF00
:1043B000882359F220913F0430914004253631057D
:1043C00008F491CF95E0F1CF2D9894CFCF92DF9262
:1043D000EF92FF920F931F93E82FF92F05C0015022
:1043E00011092109310961F1908196239417B9F3DC
:1043F00005C0015011092109310911F1908196235D
:104400009413F7CFC12CD12CE12CF12C0AC08FEFE3
:10441000C81AD80AE80AF80A0C151D052E053F052A
:1044200079F080818623841791F36C2D7D2D8E2D5C
:104430009F2D1F910F91FF90EF90DF90CF900895E7
:1044400060E070E080E090E01F910F91FF90EF90AE
:10445000DF90CF900895CF93109289031092880334
:1044600088EE93E0A0E0B0E080938A0390938B0302
:10447000A0938C03B0938D0321E831E03093870340
:104480002093860325EC30E030939303209392032E
:1044900024EC30E0309395032093940320EC30E03B
:1044A000309397032093960321EC30E030939903E7
:1044B0002093980322EC30E030939B0320939A03DF
:1044C00026EC30E030939D0320939C0310929F03D1
:1044D0001092A0031092A1031092A203109226043E
:1044E000109225048093270490932804A093290414
:1044F000B0932A0483E991E09093240480932304E9
:104500009FEF90932F041092310410923004109278
:104510003B0410923A044FEF5FEFBA014093360428
:1045200050933704609338047093390480912E05BA
:104530008C3008F074C091E0980F90932E05809312
:104540002F0590E0FC01EE0FFF1FE80FF91FE65F5B
:10455000FA4F88EB9BE09283818389E080933C044F
:1045600010923E0410926C0510926D0510926E052B
:1045700010926F051092700581E08093710580E0C4
:1045800090E0A0EEB0E48093720590937305A09341
:104590007405B0937505C4E1C09376051092780553
:1045A0001092770510927A051092790510927C0589
:1045B00010927B0550E040E06FEA71E087E795E0FC
:1045C0000E94F2178AEF80937D0580937F0582E534
:1045D00093E0909381058093800586EB93E0909320
:1045E000830580938205C0939D0510924E0510921D
:1045F0004F051092500510925105109256051092D9
:104600005705109258051092590510925A051092AC
:104610005B0510925C0510925D05CF910895909313
:104620002F059BCFCF93DF93CDB7DEB72E970FB675
:10463000F894DEBF0FBECDBF789484B5826084BD90
:1046400084B5816084BD85B5826085BD85B5816096
:1046500085BD80916E00816080936E001092810014
:1046600080918100826080938100809181008160CF
:104670008093810080918000816080938000809190
:10468000B10084608093B1008091B000816080931C
:10469000B00080917A00846080937A0080917A00E3
:1046A000826080937A0080917A00816080937A00A2
:1046B00080917A00806880937A001092C100E09126
:1046C0009603F091970382E08083E0919203F0914A
:1046D00093031082E0919403F09195038FEC808313
:1046E00010929E03E0919A03F0919B0386E08083F1
:1046F000E0919803F0919903808180618083E0913B
:104700009803F0919903808188608083E0919803F9
:10471000F0919903808180688083E0919803F09103
:10472000990380818F7D808360E081E10E94730125
:1047300061E085E00E94730161E086E00E94730100
:1047400061E087E00E94730161E088E00E947301EC
:1047500061E083E00E94730160E679E08AE090E026
:104760000E94AF018AE090E00E9418028AE590E082
:104770000E94940084EF91E00E94500A60E679E084
:104780008BE090E00E94AF018BE090E00E94180265
:104790008AE590E00E94940084EF91E00E94500A24
:1047A000E0912F058E2F90E0FC01EE0FFF1FE80F28
:1047B000F91FE65FFA4F80818F7B808389E08093C9
:1047C000070362E082E00E9473018FE19AE0909318
:1047D000020180930101809169008C7F8260809347
:1047E0006900E89A8091A002811145C0109292025E
:1047F000109291028FEF809395028093960280939E
:104800009702809398028093990280939A0281E0A4
:1048100080939B0210929D0210929C02109294022F
:104820001092930280917A0390917B03892B31F44B
:104830008FE892E090937B0380937A03E0918D025E
:10484000F0918E02309721F08FE892E09583848377
:104850008FE892E090938E0280938D0210929F02D7
:1048600010929E028FE691E09093900280938F02C7
:1048700081E08093A002549A83E093E090939202A7
:104880008093910281E090E090939D0280939C023E
:104890008091320490913304A0913404B091350496
:1048A000843C29E09207A105B10520F484EC99E04D
:1048B000A0E0B0E08093320490933304A0933404DA
:1048C000B093350484E180932F04F89482E08093C0
:1048D000B0008093B10094E69093B3001092B200C0
:1048E00080937000789480933D0410920905809124
:1048F0003C0460E00E94730160E08CE00E94730160
:1049000061E08DE00E94730160E080E10E9473012C
:1049100060E08FE00E94730160E08EE00E9473010E
:104920001092090310920803109257031092790312
:104930000E94360586EF93E090938C0280938B0261
:1049400087EF93E090938A0280938902198228EE80
:1049500033E0AE014F5F5F4F61E080E00E944B1398
:1049600087EF91E00E94A416698170E090E080E0FA
:1049700040E10E94B11686EC91E00E94A4161F5FF0
:104980001B3029F16AE070E080E090E00E94B00204
:1049900089818823E1F260E482E00E94E40663E01A
:1049A00088E00E94E40664E083E00E94E40664E696
:1049B00084E00E94E40661E186E00E94E40668EE7D
:1049C00073E080E090E00E94B0020E94D91484E07D
:1049D00092E00E94A41686EC91E00E94A416109228
:1049E000E6021092E50288E19FE00FB6F894A895E0
:1049F000809360000FBE9093600044244A94542C2E
:104A0000320122242394312CA8950E94E2020091C5
:104A1000A8021091A9022091AA023091AB02601B5A
:104A2000710B820B930B653671058105910508F4B6
:104A300055C00E94E2026093A8027093A90280937D
:104A4000AA029093AB0281E10E947902BC01990F06
:104A5000880B990B0E9498322AE939E949E15DE314
:104A60000E94F7326B017C012AE037ED43EA5DE3F7
:104A70000E94F7329B01AC01C701B6010E9450347D
:104A800060935E0570935F05809360059093610568
:104A900060915E0570915F05809160059091610560
:104AA0002091720530917305409174055091750500
:104AB0000E94913287FFF8C0809105019091060114
:104AC00001969093060180930501C29739F481E025
:104AD00080936C0510920601109205018EE00E94F1
:104AE000790290936B0580936A05409180055091FF
:104AF000810580916A0590916B05092E000CAA0B27
:104B0000BB0B00917F0510E030E020E0801791079B
:104B1000A207B30744F070E060E021E048175907AE
:104B20006A077B070CF420E020936E058FE00E945B
:104B300079029093690580936805409180055091B2
:104B400081058091680590916905092E000CAA0BDA
:104B5000BB0B00917F0510E030E020E0801791074B
:104B6000A207B30744F070E060E021E0481759075E
:104B70006A077B070CF420E020936F0580E10E9418
:104B80007902909367058093660540918005509166
:104B900081058091660590916705092E000CAA0B8E
:104BA000BB0B00917F0510E030E020E080179107FB
:104BB000A207B30744F070E060E021E0481759070E
:104BC0006A077B070CF420E0209370050E94860F93
:104BD0008091AC0290910701981751F080930701E2
:104BE000823009F473C008F062C0813009F469C0F2
:104BF0000E94A00C80916C058823E9F00E94E202DB
:104C00000091B3021091B4022091B5023091B60226
:104C1000601B710B820B930B693B7B4081059105F7
:104C200050F00E94E2026093B3027093B40280934A
:104C3000B5029093B6020E94E2020091B302109175
:104C4000B4022091B5023091B602DC01CB01801B89
:104C5000910BA20BB30B20916C05B7FD11C0853FE2
:104C6000E1E09E07A105B10514F421113DC0845F68
:104C70009140A109B109853C9940A105B10510F009
:104C800021116DC08091E5029091E602823091057C
:104C900009F4EAC008F07EC0009709F488C040E03B
:104CA00050E80197B1F15BC010926C0517CF8330CB
:104CB000A1F0843009F09CCF1092E6021092E50238
:104CC00097CF3092E6022092E50292CF82E090E008
:104CD0009093E6028093E5028BCFA3E0B0E0B0931F
:104CE000E602A093E50284CF8A3F9105A105B105B4
:104CF000C8F4883C9105A105B10590F4843691056E
:104D0000A105B10540F4C297A105B10548F040E006
:104D100050E060E048C086399105A105B105B8F7BB
:104D20004FEFF6CF803921E09207A105B10560F47D
:104D30008E3531E09307A105B10590F78C32914093
:104D4000A105B10520F7ECCF823CF1E09F07A1055A
:104D5000B105E8F2843F9140A105B10508F38091C7
:104D6000E5029091E602039709F05EC180910B0184
:104D7000882331F08AE590E00E94CF0A10920B015F
:104D800080917105811177C060E088E090E00E9419
:104D90004218D4C08330910509F469C04EEE52E840
:104DA0006EEE0497E1F682E00E94F70BD8CF222343
:104DB000C9F04FEF50E060E082E00E94F70B6EE137
:104DC00070E080E090E00E94B00240E050E060E0DF
:104DD00082E00E94F70B6EE170E080E090E00E94BC
:104DE000B002BDCF0E94E2020091AF021091B0026A
:104DF0002091B1023091B202601B710B820B930BB8
:104E00006B30710581059105C0F01091AD020E94D3
:104E1000E2026093AF027093B0028093B10290936C
:104E2000B2028091AE02811117C01F5F1093AD02D4
:104E3000143619F481E08093AE028EEE8093030362
:104E400092E890930403809305038091AD028093D0
:104E50002F040E94620B83CF11501093AD021111E9
:104E6000ECCF1092AE02E9CF4FEF5FEF52CF40E0B0
:104E700050E06FEF98CF8CEB92E00E94F516809196
:104E8000BC029091BD02459770F481E080930A01C5
:104E90008093090180910801813009F0B5C064E672
:104EA00090E080E074CF60E088E090E00E944218DB
:104EB0000E94E2020091B8021091B9022091BA0258
:104EC0003091BB02601B710B820B930B693E7340E8
:104ED00081059105A8F083E0809309018091080184
:104EE0008F5F8093080180910A018F5F80930A0190
:104EF000853058F081E08093080185E080930A01B5
:104F000080910901833009F06EC080910801909171
:104F1000B702981799F08093B702813009F041C029
:104F20000E94E2026093B8027093B9028093BA02C1
:104F30009093BB0280E590E00E94CF0A8091E50249
:104F40009091E602029709F0A9C080910C01882394
:104F500031F08AE590E00E94CF0A10920C01809116
:104F60007105811169C060E088E090E00E944218FC
:104F70008091E5029091E602019709F022C28091AA
:104F80000F01882331F08AE590E00E94CF0A109249
:104F90000F01809171058111A8C060E088E090E068
:104FA000B5C1823069F40E94E2026093B802709346
:104FB000B9028093BA029093BB0284E190E0BCCF27
:104FC000833009F4ADCF843009F0B8CF0E94E202FB
:104FD0006093B8027093B9028093BA029093BB02B7
:104FE00086E990E0A9CF813009F0A8CF82E08093D4
:104FF00009010E94E2026093B8027093B9028093A3
:10500000BA029093BB029ACF823021F466E983E022
:1050100090E0BDCE833009F442CF843009F08ECFCA
:1050200066E982E090E0B3CE1092BD021092BC021D
:1050300081E080930B0182CFCE0101960E94F5168C
:1050400089819A81459770F560E088E090E00E9440
:1050500042180EE110E0FF24F394C8010E94CF0A29
:1050600081E090E00E94500ACE0101960E94F51660
:1050700089819A814597D0F083E0F81659F195E03F
:10508000F91661F1A1E0FA1205C066E983E090E04B
:105090000E94421882E390E00E94500A81E08093CF
:1050A0000C0166CF66E990E080E060CF60E088E0C8
:1050B00090E00E944218045C1F4FB5E0FB1212C042
:1050C00066E981E090E00E94421884EF91E00E943E
:1050D000500ADBCF66E990E080E0DACF66E982E053
:1050E00090E0D6CFF394F394B8CF8091800590915F
:1050F0008105B0E0A0E040917F0550E070E060E005
:105100000091680510916905012E000C220B330BEC
:1051100004171507260737070CF4A9C08017910755
:10512000A207B3070CF4A3C064E690E080E00E94FD
:10513000421881E080930E0180930D018091E50279
:105140009091E6028430910509F04FC160917D0590
:105150008091E3029091E4020E94421881E494E07D
:10516000909300038093FF028091090590E0909353
:1051700002038093010380913D04853009F0BCC691
:105180008091430490914404885891098D3591058C
:1051900008F098C180910905843009F067C18091B9
:1051A0004504909146048097479708F05FC180912D
:1051B0004704909148040997099708F057C1109245
:1051C000FE021092FD024092F9025092FA026092A1
:1051D000FB027092FC023092F6022092F5020E94CD
:1051E000E2026093C8027093C9028093CA0290934E
:1051F000CB028091F9029091FA02A091FB02B0914A
:10520000FC028F34F0EB9F07FFEFAF07B10509F405
:105210003DC708F0A0C68D3B32E493073FEFA307DC
:10522000B10509F4DFC608F033C6873EF8E19F07F1
:10523000FFEFAF07B10509F438C708F011C68D3F7D
:1052400032E093073FEFA307B10509F422C78F3E71
:10525000E0E19E07EFEFAE07B10509F429C78B3BEC
:105260009D41A145B10509F042C6E1E01FC700918B
:105270006A0510916B05012E000C220B330B0417ED
:1052800015072607370734F080179107A207B307E1
:105290000CF03FC00091660510916705012E000CCF
:1052A000220B330B0417150726073707B4F5809137
:1052B0000E01882389F010920E010E94E202609391
:1052C000BE027093BF028093C0029093C10260E05F
:1052D00088E090E00E9442180E94E202C090BE0264
:1052E000D090BF02E090C002F090C1026C197D091D
:1052F0008E099F09693C710581059105B8F480917B
:105300000D01882341F164E683E090E00E94421899
:1053100015CF64E683E090E00ACF80179107A207DB
:10532000B3072CF264E682E090E001CF0E94E20233
:1053300000EC19EF2FEF3FEF0C191D092E093F0963
:10534000DC01CB01800F911FA21FB31F8139914057
:10535000A105B105A0F20E94E20208E31FEF2FEFC2
:105360003FEF0C191D092E093F09DC01CB01800F0D
:10537000911FA21FB31F89379540A105B105C8F041
:105380000E94E20208E414EF2FEF3FEF0C191D0911
:105390002E093F09DC01CB01800F911FA21FB31F13
:1053A000853F9140A105B10508F0C8CE10920D01CE
:1053B000F4CD80910D01882319F364E682E090E03A
:1053C000A5CF81E080930F0190910E019111B6CE8F
:1053D00080930D0180930E011092BE021092BF02C5
:1053E0001092C0021092C102A9CE892B09F0B6CE4C
:1053F00060E088E090E00E944218809110018823CC
:1054000009F4ACCE0E94E2020091C3021091C402E2
:105410002091C5023091C602601B710B820B930B69
:10542000653171058105910508F498CE0E94E2026C
:105430006093C3027093C4028093C5029093C60226
:105440000E94860F882379F08091C2028F5F80933B
:10545000C2028091C2028B3008F480CE10921001FB
:105460000E94D9147BCE1092C202F3CF809109051D
:10547000843440F18091450490914604825491090E
:105480008E9700F590E080E040E050E0BA01FC012A
:10549000E95BFB4F208131812950310929303105E9
:1054A00088F4FC01E75BFB4F2081318126513109F3
:1054B0002131310530F120813181265031092730E9
:1054C0003105C0F1809109058A3108F468C08091E6
:1054D000410490914204843F914088F51092FE026D
:1054E0001092FD024092F9025092FA026092FB0281
:1054F0007092FC0289E090E09093F6028093F502AE
:105500006ECE440F551F661F771F4160049680388A
:10551000910509F0BCCFA0E2B0E0B093FE02A093E9
:10552000FD024093F9025093FA026093FB027093DC
:10553000FC0251CE440F551F661F771FE7CF8091A5
:1055400043049091440485974B9748F5ECE3F4E0CD
:1055500082E090E040E050E0BA01A09109059C0192
:105560002F5F3F4FA217130609F00CF4F2C02185FC
:105570003285275031092730310508F0EAC02385EC
:105580003485235131092F30310508F4D5C02385E6
:1055900034852A5031092930310508F4D5C080916D
:1055A00009058A3108F43FC080914104909142047A
:1055B0008032934008F492CF809143049091440448
:1055C000C697869780F58091450490914604C697CA
:1055D000869748F5ECE3F4E083E090E040E050E0AB
:1055E000BA01A09109059C012F5F3F4FA217130636
:1055F00009F00CF4D8C0238534852C5031092B30A8
:10560000310508F0D0C025853685255231092B316A
:10561000310508F4BBC0258536852C5031092A3068
:10562000310508F4BBC080910905823238F18091C0
:105630004304909144040697079700F5ECE3F4E0E7
:1056400082E090E040E050E0BA01DC011196209148
:1056500009052A171B0609F00CF4D1C021853285F3
:105660002E5131092731310508F4B4C02185328526
:105670002C5031092B30310508F4BBC0809109054D
:105680008D3008F4EDC03D822C821A82198249E7E0
:1056900053E0BE016F5F7F4FCE0104960E947F03EF
:1056A000892B09F0DDC049E753E0BE016F5F7F4FF2
:1056B000CE0104960E947F03019709F0D1C049E70B
:1056C00053E0BE016F5F7F4FCE0104960E947F03BF
:1056D0008C01892B09F0C4C0812C912C540120919C
:1056E00009058C819D812817190609F00CF4A9C0C1
:1056F00049E753E0BE016F5F7F4FCE0104960E94E1
:105700007F037C0149E753E0BE016F5F7F4FCE010D
:1057100004960E947F0321E0E216F10409F088C09C
:10572000892B09F09DC0880C991CAA1CBB1C68948D
:1057300080F80F5F1F4FD3CF440F551F661F771F91
:1057400041600296349609CF440F551F661F771F9C
:10575000F8CF0197959587959093FE028093FD026F
:105760000C972CF41092FE021092FD0218CF409379
:10577000F9025093FA026093FB027093FC02E2E09C
:10578000F0E0F093F602E093F50229CD440F551FA7
:10579000661F771F41600296349623CF440F551F32
:1057A000661F771FF8CF0197959587959093FE0216
:1057B0008093FD020C972CF41092FE021092FD02D1
:1057C00032CF4093F9025093FA026093FB02709338
:1057D000FC0290CE440F551F661F771F4160238542
:1057E00034853496235031092530310538F402963A
:1057F0002CCF440F551F661F771FF1CFCD010197A6
:10580000959587959093FE028093FD0240972CF426
:105810001092FE021092FD0231CF4093F902509394
:10582000FA026093FB027093FC028AE090E064CE7F
:10583000EF28B1F40197A1F4880C991CAA1CBB1C99
:1058400078CF1093FE020093FD028092F9029092AD
:10585000FA02A092FB02B092FC0283E090E04CCEF0
:105860008091010390910203181619060CF082C072
:10587000E091FF02F09100033D822C8282819381AE
:1058800089974E9708F076C0A2E0B0E0BD83AC8364
:10589000848195810B970A9708F06CC0E3E0F0E0F3
:1058A000FD83EC831A8219824CEB51E0BE016F5FDD
:1058B0007F4FCE0104960E947F038C01892B09F053
:1058C00059C04CEB51E0BE016F5F7F4FCE01049693
:1058D0000E947F03019709F04DC0812C912C540147
:1058E00020910103309102038C819D8182179307DF
:1058F0000CF0E2C04CEB51E0BE016F5F7F4FCE0178
:1059000004960E947F036C010330110539F14CEBC2
:1059100051E0BE016F5F7F4FCE0104960E947F036E
:105920007C010330110561F44CEB51E0BE016F5F67
:105930007F4FCE0104960E947F03E816F906D1F44A
:10594000C114D10409F4ABC0CA94CD2899F4EF284E
:1059500089F4880C991CAA1CBB1CABC04CEB51E011
:10596000BE016F5F7F4FCE0104960E947F03C81671
:10597000D90669F2E091FF02F091000382819381E0
:10598000C697869778F5848195814B97459750F512
:10599000DF0116967F0136ECE30EF11C20E030E0CB
:1059A00040E050E060E070E080E090E00D911C91FC
:1059B00011970950110908301105A0F412960D91A4
:1059C0001C911397015111090D30110508F483C082
:1059D00012960D911C911397045011090530110571
:1059E00008F49EC08281938189579109833591057E
:1059F00068F580910905893348F184819581CA97BA
:105A0000899720F59F012A5F3F4FC12CD12C760149
:105A100043E050E0D9016D917C9111976A50710972
:105A20006930710598F412966D917C9113976651C7
:105A300071096131710508F477C012966D917C91FE
:105A4000665071096730710508F49DC080910905A1
:105A5000823209F09DC0828193810A97099708F0EC
:105A600097C0A0910905B0E0A150B048AA0FBB1F94
:105A7000AE0FBF1F8D919C910A97099708F088C0BF
:105A80001092FE021092FD024092F9025092FA0228
:105A90006092FB027092FC0288E090E02DCDEA94C7
:105AA000EF2809F067CF880C991CAA1CBB1C6894CE
:105AB00080F80F5F1F4F14CF1093FE020093FD027A
:105AC0008092F9029092FA02A092FB02B092FC023C
:105AD00084E090E011CD01E00E94BA352160149677
